{
  "_format": "hh-sol-artifact-1",
  "contractName": "Treasury",
  "sourceName": "contracts/treasury/Treasury.sol",
  "abi": [
    {
      "inputs": [],
      "stateMutability": "nonpayable",
      "type": "constructor"
    },
    {
      "anonymous": false,
      "inputs": [
        {
          "indexed": false,
          "internalType": "uint256",
          "name": "badDebtValue",
          "type": "uint256"
        }
      ],
      "name": "BadDebtUpdated",
      "type": "event"
    },
    {
      "anonymous": false,
      "inputs": [
        {
          "indexed": true,
          "internalType": "address",
          "name": "_core",
          "type": "address"
        }
      ],
      "name": "CoreUpdated",
      "type": "event"
    },
    {
      "anonymous": false,
      "inputs": [
        {
          "indexed": true,
          "internalType": "address",
          "name": "_treasury",
          "type": "address"
        }
      ],
      "name": "NewTreasurySet",
      "type": "event"
    },
    {
      "anonymous": false,
      "inputs": [
        {
          "indexed": true,
          "internalType": "address",
          "name": "token",
          "type": "address"
        },
        {
          "indexed": true,
          "internalType": "address",
          "name": "to",
          "type": "address"
        },
        {
          "indexed": false,
          "internalType": "uint256",
          "name": "amount",
          "type": "uint256"
        }
      ],
      "name": "Recovered",
      "type": "event"
    },
    {
      "anonymous": false,
      "inputs": [
        {
          "indexed": false,
          "internalType": "uint256",
          "name": "surplusBufferValue",
          "type": "uint256"
        }
      ],
      "name": "SurplusBufferUpdated",
      "type": "event"
    },
    {
      "anonymous": false,
      "inputs": [
        {
          "indexed": false,
          "internalType": "uint64",
          "name": "_surplusForGovernance",
          "type": "uint64"
        }
      ],
      "name": "SurplusForGovernanceUpdated",
      "type": "event"
    },
    {
      "anonymous": false,
      "inputs": [
        {
          "indexed": true,
          "internalType": "address",
          "name": "_surplusManager",
          "type": "address"
        }
      ],
      "name": "SurplusManagerUpdated",
      "type": "event"
    },
    {
      "anonymous": false,
      "inputs": [
        {
          "indexed": true,
          "internalType": "address",
          "name": "vaultManager",
          "type": "address"
        }
      ],
      "name": "VaultManagerToggled",
      "type": "event"
    },
    {
      "inputs": [],
      "name": "BASE_PARAMS",
      "outputs": [
        {
          "internalType": "uint256",
          "name": "",
          "type": "uint256"
        }
      ],
      "stateMutability": "view",
      "type": "function"
    },
    {
      "inputs": [
        {
          "internalType": "address",
          "name": "minter",
          "type": "address"
        }
      ],
      "name": "addMinter",
      "outputs": [],
      "stateMutability": "nonpayable",
      "type": "function"
    },
    {
      "inputs": [
        {
          "internalType": "address",
          "name": "vaultManager",
          "type": "address"
        }
      ],
      "name": "addVaultManager",
      "outputs": [],
      "stateMutability": "nonpayable",
      "type": "function"
    },
    {
      "inputs": [],
      "name": "badDebt",
      "outputs": [
        {
          "internalType": "uint256",
          "name": "",
          "type": "uint256"
        }
      ],
      "stateMutability": "view",
      "type": "function"
    },
    {
      "inputs": [],
      "name": "core",
      "outputs": [
        {
          "internalType": "contract ICoreBorrow",
          "name": "",
          "type": "address"
        }
      ],
      "stateMutability": "view",
      "type": "function"
    },
    {
      "inputs": [],
      "name": "fetchSurplusFromAll",
      "outputs": [
        {
          "internalType": "uint256",
          "name": "",
          "type": "uint256"
        },
        {
          "internalType": "uint256",
          "name": "",
          "type": "uint256"
        }
      ],
      "stateMutability": "nonpayable",
      "type": "function"
    },
    {
      "inputs": [],
      "name": "fetchSurplusFromFlashLoan",
      "outputs": [
        {
          "internalType": "uint256",
          "name": "",
          "type": "uint256"
        },
        {
          "internalType": "uint256",
          "name": "",
          "type": "uint256"
        }
      ],
      "stateMutability": "nonpayable",
      "type": "function"
    },
    {
      "inputs": [
        {
          "internalType": "address[]",
          "name": "vaultManagers",
          "type": "address[]"
        }
      ],
      "name": "fetchSurplusFromVaultManagers",
      "outputs": [
        {
          "internalType": "uint256",
          "name": "",
          "type": "uint256"
        },
        {
          "internalType": "uint256",
          "name": "",
          "type": "uint256"
        }
      ],
      "stateMutability": "nonpayable",
      "type": "function"
    },
    {
      "inputs": [],
      "name": "flashLoanModule",
      "outputs": [
        {
          "internalType": "contract IFlashAngle",
          "name": "",
          "type": "address"
        }
      ],
      "stateMutability": "view",
      "type": "function"
    },
    {
      "inputs": [
        {
          "internalType": "contract ICoreBorrow",
          "name": "_core",
          "type": "address"
        },
        {
          "internalType": "contract IAgToken",
          "name": "_stablecoin",
          "type": "address"
        }
      ],
      "name": "initialize",
      "outputs": [],
      "stateMutability": "nonpayable",
      "type": "function"
    },
    {
      "inputs": [
        {
          "internalType": "address",
          "name": "admin",
          "type": "address"
        }
      ],
      "name": "isGovernor",
      "outputs": [
        {
          "internalType": "bool",
          "name": "",
          "type": "bool"
        }
      ],
      "stateMutability": "view",
      "type": "function"
    },
    {
      "inputs": [
        {
          "internalType": "address",
          "name": "admin",
          "type": "address"
        }
      ],
      "name": "isGovernorOrGuardian",
      "outputs": [
        {
          "internalType": "bool",
          "name": "",
          "type": "bool"
        }
      ],
      "stateMutability": "view",
      "type": "function"
    },
    {
      "inputs": [
        {
          "internalType": "address",
          "name": "_vaultManager",
          "type": "address"
        }
      ],
      "name": "isVaultManager",
      "outputs": [
        {
          "internalType": "bool",
          "name": "",
          "type": "bool"
        }
      ],
      "stateMutability": "view",
      "type": "function"
    },
    {
      "inputs": [],
      "name": "pushSurplus",
      "outputs": [
        {
          "internalType": "uint256",
          "name": "governanceAllocation",
          "type": "uint256"
        }
      ],
      "stateMutability": "nonpayable",
      "type": "function"
    },
    {
      "inputs": [
        {
          "internalType": "address",
          "name": "tokenAddress",
          "type": "address"
        },
        {
          "internalType": "address",
          "name": "to",
          "type": "address"
        },
        {
          "internalType": "uint256",
          "name": "amountToRecover",
          "type": "uint256"
        }
      ],
      "name": "recoverERC20",
      "outputs": [],
      "stateMutability": "nonpayable",
      "type": "function"
    },
    {
      "inputs": [
        {
          "internalType": "address",
          "name": "minter",
          "type": "address"
        }
      ],
      "name": "removeMinter",
      "outputs": [],
      "stateMutability": "nonpayable",
      "type": "function"
    },
    {
      "inputs": [
        {
          "internalType": "address",
          "name": "vaultManager",
          "type": "address"
        }
      ],
      "name": "removeVaultManager",
      "outputs": [],
      "stateMutability": "nonpayable",
      "type": "function"
    },
    {
      "inputs": [
        {
          "internalType": "contract ICoreBorrow",
          "name": "_core",
          "type": "address"
        }
      ],
      "name": "setCore",
      "outputs": [],
      "stateMutability": "nonpayable",
      "type": "function"
    },
    {
      "inputs": [
        {
          "internalType": "address",
          "name": "_flashLoanModule",
          "type": "address"
        }
      ],
      "name": "setFlashLoanModule",
      "outputs": [],
      "stateMutability": "nonpayable",
      "type": "function"
    },
    {
      "inputs": [
        {
          "internalType": "uint64",
          "name": "_surplusForGovernance",
          "type": "uint64"
        }
      ],
      "name": "setSurplusForGovernance",
      "outputs": [],
      "stateMutability": "nonpayable",
      "type": "function"
    },
    {
      "inputs": [
        {
          "internalType": "address",
          "name": "_surplusManager",
          "type": "address"
        }
      ],
      "name": "setSurplusManager",
      "outputs": [],
      "stateMutability": "nonpayable",
      "type": "function"
    },
    {
      "inputs": [
        {
          "internalType": "address",
          "name": "_treasury",
          "type": "address"
        }
      ],
      "name": "setTreasury",
      "outputs": [],
      "stateMutability": "nonpayable",
      "type": "function"
    },
    {
      "inputs": [],
      "name": "stablecoin",
      "outputs": [
        {
          "internalType": "contract IAgToken",
          "name": "",
          "type": "address"
        }
      ],
      "stateMutability": "view",
      "type": "function"
    },
    {
      "inputs": [],
      "name": "surplusBuffer",
      "outputs": [
        {
          "internalType": "uint256",
          "name": "",
          "type": "uint256"
        }
      ],
      "stateMutability": "view",
      "type": "function"
    },
    {
      "inputs": [],
      "name": "surplusForGovernance",
      "outputs": [
        {
          "internalType": "uint64",
          "name": "",
          "type": "uint64"
        }
      ],
      "stateMutability": "view",
      "type": "function"
    },
    {
      "inputs": [],
      "name": "surplusManager",
      "outputs": [
        {
          "internalType": "address",
          "name": "",
          "type": "address"
        }
      ],
      "stateMutability": "view",
      "type": "function"
    },
    {
      "inputs": [
        {
          "internalType": "uint256",
          "name": "amount",
          "type": "uint256"
        }
      ],
      "name": "updateBadDebt",
      "outputs": [
        {
          "internalType": "uint256",
          "name": "badDebtValue",
          "type": "uint256"
        }
      ],
      "stateMutability": "nonpayable",
      "type": "function"
    },
    {
      "inputs": [
        {
          "internalType": "uint256",
          "name": "",
          "type": "uint256"
        }
      ],
      "name": "vaultManagerList",
      "outputs": [
        {
          "internalType": "address",
          "name": "",
          "type": "address"
        }
      ],
      "stateMutability": "view",
      "type": "function"
    },
    {
      "inputs": [
        {
          "internalType": "address",
          "name": "",
          "type": "address"
        }
      ],
      "name": "vaultManagerMap",
      "outputs": [
        {
          "internalType": "bool",
          "name": "",
          "type": "bool"
        }
      ],
      "stateMutability": "view",
      "type": "function"
    }
  ],
  "bytecode": "0x60806040523480156200001157600080fd5b50600054610100900460ff166200002f5760005460ff161562000039565b62000039620000de565b620000a15760405162461bcd60e51b815260206004820152602e60248201527f496e697469616c697a61626c653a20636f6e747261637420697320616c72656160448201526d191e481a5b9a5d1a585b1a5e995960921b606482015260840160405180910390fd5b600054610100900460ff16158015620000c4576000805461ffff19166101011790555b8015620000d7576000805461ff00191690555b5062000102565b6000620000f630620000fc60201b620019701760201c565b15905090565b3b151590565b61246380620001126000396000f3fe608060405234801561001057600080fd5b506004361061015f5760003560e01c80630d45456d146101645780631171bda914610186578063137f3b0a1461019b57806319106b67146101bc57806321c29f92146101c45780632a608d5b146101d75780632f15caed146101e05780633092afd514610200578063485cc95514610213578063521d4de9146102265780635290e6a6146102495780635c77f2851461025c5780635e654522146102645780635f80fcad14610277578063676a553e1461028a57806380009630146102b657806389110235146102c9578063959d5a01146102ec578063983b2d561461030c5780639f48118f1461031f578063a94624101461032a578063bbcac5571461033d578063cf87300314610346578063df48681914610359578063e43581b81461036c578063e9cbd8221461037f578063f0f4426014610392578063f2f4eb26146103a5578063f5ec243c146103be575b600080fd5b61016c6103d1565b604080519283526020830191909152015b60405180910390f35b610199610194366004611f8e565b6103e4565b005b6101ae6101a9366004611fcf565b610622565b60405190815260200161017d565b6101ae6106e3565b6101996101d2366004611fe8565b6107e8565b6101ae60075481565b6008546101f3906001600160401b031681565b60405161017d9190612005565b61019961020e366004611fe8565b610937565b610199610221366004612019565b610a7c565b610239610234366004611fe8565b610bc8565b604051901515815260200161017d565b610199610257366004611fe8565b610c45565b61016c610edc565b610199610272366004612052565b610f7e565b610199610285366004611fe8565b6110a7565b610239610298366004611fe8565b6001600160a01b031660009081526005602052604090205460ff1690565b6101996102c4366004611fe8565b6112bf565b6102396102d7366004611fe8565b60056020526000908152604090205460ff1681565b6001546102ff906001600160a01b031681565b60405161017d919061207b565b61019961031a366004611fe8565b61142c565b6101ae633b9aca0081565b610199610338366004611fe8565b611514565b6101ae60065481565b61016c6103543660046120a5565b611616565b6102ff610367366004611fcf565b61163e565b61023961037a366004611fe8565b611668565b6002546102ff906001600160a01b031681565b6101996103a0366004611fe8565b61169e565b6000546102ff906201000090046001600160a01b031681565b6003546102ff906001600160a01b031681565b6000806103dc611976565b915091509091565b600054604051631c86b03760e31b8152620100009091046001600160a01b03169063e43581b89061041990339060040161207b565b602060405180830381865afa158015610436573d6000803e3d6000fd5b505050506040513d601f19601f8201168201806040525081019061045a9190612169565b61047f5760405162461bcd60e51b81526004016104769061218b565b60405180910390fd5b6002546001600160a01b03848116911614156105bc5761049d611976565b50506002546040516370a0823160e01b81526000916001600160a01b0316906370a08231906104d090309060040161207b565b602060405180830381865afa1580156104ed573d6000803e3d6000fd5b505050506040513d601f19601f8201168201806040525081019061051191906121a6565b9050806007548361052291906121d5565b11156105405760405162461bcd60e51b8152600401610476906121ed565b60025460405163a9059cbb60e01b81526001600160a01b039091169063a9059cbb906105729086908690600401612208565b6020604051808303816000875af1158015610591573d6000803e3d6000fd5b505050506040513d601f19601f820116820180604052508101906105b59190612169565b50506105d0565b6105d06001600160a01b0384168383611a89565b816001600160a01b0316836001600160a01b03167ffff3b3844276f57024e0b42afec1a37f75db36511e43819a4f2a63ab7862b6488360405161061591815260200190565b60405180910390a3505050565b600654808211156106455760405162461bcd60e51b8152600401610476906121ed565b6002546040516315a38ec760e11b81526001600160a01b0390911690632b471d8e906106779085903090600401612221565b600060405180830381600087803b15801561069157600080fd5b505af11580156106a5573d6000803e3d6000fd5b5050505081816106b59190612238565b600681905560405181815290915060008051602061240e8339815191529060200160405180910390a1919050565b6003546000906001600160a01b03168061070f5760405162461bcd60e51b81526004016104769061224f565b6000610719611976565b50600060078190556040519081529091506000805160206123ce8339815191529060200160405180910390a1600854633b9aca00906107629083906001600160401b031661226a565b61076c9190612289565b60025460405163a9059cbb60e01b81529194506001600160a01b03169063a9059cbb9061079f9085908790600401612208565b6020604051808303816000875af11580156107be573d6000803e3d6000fd5b505050506040513d601f19601f820116820180604052508101906107e29190612169565b50505090565b6000546201000090046001600160a01b0316331461082d5760405162461bcd60e51b8152602060048201526002602482015261031360f41b6044820152606401610476565b6001546001600160a01b031680156108a257600254604051633092afd560e01b81526001600160a01b0390911690633092afd59061086f90849060040161207b565b600060405180830381600087803b15801561088957600080fd5b505af115801561089d573d6000803e3d6000fd5b505050505b6001600160a01b0382161561091457600254604051634c1d96ab60e11b81526001600160a01b039091169063983b2d56906108e190859060040161207b565b600060405180830381600087803b1580156108fb57600080fd5b505af115801561090f573d6000803e3d6000fd5b505050505b50600180546001600160a01b0319166001600160a01b0392909216919091179055565b600054604051631c86b03760e31b8152620100009091046001600160a01b03169063e43581b89061096c90339060040161207b565b602060405180830381865afa158015610989573d6000803e3d6000fd5b505050506040513d601f19601f820116820180604052508101906109ad9190612169565b6109c95760405162461bcd60e51b81526004016104769061218b565b6001600160a01b03811660009081526005602052604090205460ff1615610a175760405162461bcd60e51b8152602060048201526002602482015261199b60f11b6044820152606401610476565b600254604051633092afd560e01b81526001600160a01b0390911690633092afd590610a4790849060040161207b565b600060405180830381600087803b158015610a6157600080fd5b505af1158015610a75573d6000803e3d6000fd5b5050505050565b600054610100900460ff16610a975760005460ff1615610a9b565b303b155b610afe5760405162461bcd60e51b815260206004820152602e60248201527f496e697469616c697a61626c653a20636f6e747261637420697320616c72656160448201526d191e481a5b9a5d1a585b1a5e995960921b6064820152608401610476565b600054610100900460ff16158015610b20576000805461ffff19166101011790555b6001600160a01b03821615801590610b4057506001600160a01b03831615155b610b705760405162461bcd60e51b81526020600482015260016024820152604f60f81b6044820152606401610476565b6000805462010000600160b01b031916620100006001600160a01b038681169190910291909117909155600280546001600160a01b0319169184169190911790558015610bc3576000805461ff00191690555b505050565b6000805460405163521d4de960e01b8152620100009091046001600160a01b03169063521d4de990610bfe90859060040161207b565b602060405180830381865afa158015610c1b573d6000803e3d6000fd5b505050506040513d601f19601f82011682018060405250810190610c3f9190612169565b92915050565b600054604051631c86b03760e31b8152620100009091046001600160a01b03169063e43581b890610c7a90339060040161207b565b602060405180830381865afa158015610c97573d6000803e3d6000fd5b505050506040513d601f19601f82011682018060405250810190610cbb9190612169565b610cd75760405162461bcd60e51b81526004016104769061218b565b6001600160a01b03811660009081526005602052604090205460ff16610d235760405162461bcd60e51b81526020600482015260016024820152603360f81b6044820152606401610476565b6001600160a01b0381166000908152600560205260408120805460ff19169055600454905b610d53600183612238565b811015610e2057826001600160a01b031660048281548110610d7757610d776122ab565b6000918252602090912001546001600160a01b03161415610e0e576004610d9f600184612238565b81548110610daf57610daf6122ab565b600091825260209091200154600480546001600160a01b039092169183908110610ddb57610ddb6122ab565b9060005260206000200160006101000a8154816001600160a01b0302191690836001600160a01b03160217905550610e20565b80610e18816122c1565b915050610d48565b506004805480610e3257610e326122dc565b600082815260208120820160001990810180546001600160a01b03191690559091019091556040516001600160a01b038416916000805160206123ee83398151915291a2600254604051633092afd560e01b81526001600160a01b0390911690633092afd590610ea690859060040161207b565b600060405180830381600087803b158015610ec057600080fd5b505af1158015610ed4573d6000803e3d6000fd5b505050505050565b6001546002546040516396337bd560e01b8152600092839283926001600160a01b03928316926396337bd592610f179291169060040161207b565b6020604051808303816000875af1158015610f36573d6000803e3d6000fd5b505050506040513d601f19601f82011682018060405250810190610f5a91906121a6565b600754610f6791906121d5565b9050610f7581600654611adf565b92509250509091565b600054604051631c86b03760e31b8152620100009091046001600160a01b03169063e43581b890610fb390339060040161207b565b602060405180830381865afa158015610fd0573d6000803e3d6000fd5b505050506040513d601f19601f82011682018060405250810190610ff49190612169565b6110105760405162461bcd60e51b81526004016104769061218b565b633b9aca00816001600160401b031611156110515760405162461bcd60e51b81526020600482015260016024820152603960f81b6044820152606401610476565b600880546001600160401b0319166001600160401b0383161790556040517fe4c9afce87963212e0d33e6b4b43fee7103b8c57228620e450e5064b95ee08ec9061109c908390612005565b60405180910390a150565b600054604051631c86b03760e31b8152620100009091046001600160a01b03169063e43581b8906110dc90339060040161207b565b602060405180830381865afa1580156110f9573d6000803e3d6000fd5b505050506040513d601f19601f8201168201806040525081019061111d9190612169565b6111395760405162461bcd60e51b81526004016104769061218b565b6001600160a01b03811660009081526005602052604090205460ff16156111865760405162461bcd60e51b81526020600482015260016024820152603560f81b6044820152606401610476565b306001600160a01b0316816001600160a01b03166361d027b36040518163ffffffff1660e01b8152600401602060405180830381865afa1580156111ce573d6000803e3d6000fd5b505050506040513d601f19601f820116820180604052508101906111f291906122f2565b6001600160a01b0316146112185760405162461bcd60e51b81526004016104769061230f565b6001600160a01b038116600081815260056020526040808220805460ff1916600190811790915560048054918201815583527f8a35acfbc15ff81a39ae7d344fd709f28e8600b4aa8c65c6b64bfe7fe36bd19b0180546001600160a01b03191684179055516000805160206123ee8339815191529190a2600254604051634c1d96ab60e11b81526001600160a01b039091169063983b2d5690610a4790849060040161207b565b600054604051631c86b03760e31b8152620100009091046001600160a01b03169063e43581b8906112f490339060040161207b565b602060405180830381865afa158015611311573d6000803e3d6000fd5b505050506040513d601f19601f820116820180604052508101906113359190612169565b6113515760405162461bcd60e51b81526004016104769061218b565b604051631c86b03760e31b81526001600160a01b0382169063e43581b89061137d90339060040161207b565b602060405180830381865afa15801561139a573d6000803e3d6000fd5b505050506040513d601f19601f820116820180604052508101906113be9190612169565b6113da5760405162461bcd60e51b81526004016104769061218b565b6000805462010000600160b01b031916620100006001600160a01b03841690810291909117825560405190917f0c9c0f914e121785e2cd2269d6698bc11f59a50b85ef9aa1197fb4ddb96c4e5691a250565b600054604051631c86b03760e31b8152620100009091046001600160a01b03169063e43581b89061146190339060040161207b565b602060405180830381865afa15801561147e573d6000803e3d6000fd5b505050506040513d601f19601f820116820180604052508101906114a29190612169565b6114be5760405162461bcd60e51b81526004016104769061218b565b6001600160a01b0381166114e45760405162461bcd60e51b81526004016104769061224f565b600254604051634c1d96ab60e11b81526001600160a01b039091169063983b2d5690610a4790849060040161207b565b600054604051631c86b03760e31b8152620100009091046001600160a01b03169063e43581b89061154990339060040161207b565b602060405180830381865afa158015611566573d6000803e3d6000fd5b505050506040513d601f19601f8201168201806040525081019061158a9190612169565b6115a65760405162461bcd60e51b81526004016104769061218b565b6001600160a01b0381166115cc5760405162461bcd60e51b81526004016104769061224f565b600380546001600160a01b0319166001600160a01b0383169081179091556040517f8e34f87614920d3825860be957926690888c7cb9ed7fb5ec457edaaad64bd28c90600090a250565b60008060008061162585611c52565b915091506116338282611adf565b935093505050915091565b6004818154811061164e57600080fd5b6000918252602090912001546001600160a01b0316905081565b60008054604051631c86b03760e31b8152620100009091046001600160a01b03169063e43581b890610bfe90859060040161207b565b600054604051631c86b03760e31b8152620100009091046001600160a01b03169063e43581b8906116d390339060040161207b565b602060405180830381865afa1580156116f0573d6000803e3d6000fd5b505050506040513d601f19601f820116820180604052508101906117149190612169565b6117305760405162461bcd60e51b81526004016104769061218b565b600254604080516374e5ec1160e11b815290516001600160a01b039283169284169163e9cbd8229160048083019260209291908290030181865afa15801561177c573d6000803e3d6000fd5b505050506040513d601f19601f820116820180604052508101906117a091906122f2565b6001600160a01b0316146117c65760405162461bcd60e51b81526004016104769061230f565b600054604051637816ec5160e11b8152620100009091046001600160a01b03169063f02dd8a2906117fb90309060040161207b565b602060405180830381865afa158015611818573d6000803e3d6000fd5b505050506040513d601f19601f8201168201806040525081019061183c9190612169565b1561186d5760405162461bcd60e51b81526020600482015260016024820152603760f81b6044820152606401610476565b6040516001600160a01b038216907fa74e71df5980104def7b321d0fa7d4b885191d40a2ae420acb543c3eba54253290600090a260005b60045481101561193f57600481815481106118c1576118c16122ab565b600091825260209091200154604051630787a21360e51b81526001600160a01b039091169063f0f44260906118fa90859060040161207b565b600060405180830381600087803b15801561191457600080fd5b505af1158015611928573d6000803e3d6000fd5b505050508080611937906122c1565b9150506118a4565b50600254604051630787a21360e51b81526001600160a01b039091169063f0f4426090610a4790849060040161207b565b3b151590565b6000806119dc60048054806020026020016040519081016040528092919081815260200182805480156119d257602002820191906000526020600020905b81546001600160a01b031681526001909101906020018083116119b4575b5050505050611c52565b60015491935091506001600160a01b031615611a76576001546002546040516396337bd560e01b81526001600160a01b03928316926396337bd592611a269291169060040161207b565b6020604051808303816000875af1158015611a45573d6000803e3d6000fd5b505050506040513d601f19601f82011682018060405250810190611a6991906121a6565b611a7390836121d5565b91505b611a808282611adf565b90939092509050565b610bc38363a9059cbb60e01b8484604051602401611aa8929190612208565b60408051601f198184030181529190526020810180516001600160e01b03166001600160e01b031990931692909217909152611d1a565b6000808215611bfe576002546040516370a0823160e01b81526000916001600160a01b0316906370a0823190611b1990309060040161207b565b602060405180830381865afa158015611b36573d6000803e3d6000fd5b505050506040513d601f19601f82011682018060405250810190611b5a91906121a6565b9050600084821115611b6c5784611b6e565b815b6002546040516315a38ec760e11b81529192506001600160a01b031690632b471d8e90611ba19084903090600401612221565b600060405180830381600087803b158015611bbb57600080fd5b505af1158015611bcf573d6000803e3d6000fd5b5050505085811015611bea57611be58187612238565b611bed565b60005b9550611bf98186612238565b945050505b600784905560068390556040518481526000805160206123ce8339815191529060200160405180910390a160405183815260008051602061240e8339815191529060200160405180910390a1509192909150565b60065460075490600080805b8551811015611d1257858181518110611c7957611c796122ab565b60200260200101516001600160a01b031663fd527cf86040518163ffffffff1660e01b815260040160408051808303816000875af1158015611cbf573d6000803e3d6000fd5b505050506040513d601f19601f82011682018060405250810190611ce3919061232a565b9093509150611cf283866121d5565b9450611cfe82856121d5565b935080611d0a816122c1565b915050611c5e565b505050915091565b6000611d6f826040518060400160405280602081526020017f5361666545524332303a206c6f772d6c6576656c2063616c6c206661696c6564815250856001600160a01b0316611dec9092919063ffffffff16565b805190915015610bc35780806020019051810190611d8d9190612169565b610bc35760405162461bcd60e51b815260206004820152602a60248201527f5361666545524332303a204552433230206f7065726174696f6e20646964206e6044820152691bdd081cdd58d8d9595960b21b6064820152608401610476565b6060611dfb8484600085611e05565b90505b9392505050565b606082471015611e665760405162461bcd60e51b815260206004820152602660248201527f416464726573733a20696e73756666696369656e742062616c616e636520666f6044820152651c8818d85b1b60d21b6064820152608401610476565b843b611eb45760405162461bcd60e51b815260206004820152601d60248201527f416464726573733a2063616c6c20746f206e6f6e2d636f6e74726163740000006044820152606401610476565b600080866001600160a01b03168587604051611ed0919061237e565b60006040518083038185875af1925050503d8060008114611f0d576040519150601f19603f3d011682016040523d82523d6000602084013e611f12565b606091505b5091509150611f22828286611f2d565b979650505050505050565b60608315611f3c575081611dfe565b825115611f4c5782518084602001fd5b8160405162461bcd60e51b8152600401610476919061239a565b6001600160a01b0381168114611f7b57600080fd5b50565b8035611f8981611f66565b919050565b600080600060608486031215611fa357600080fd5b8335611fae81611f66565b92506020840135611fbe81611f66565b929592945050506040919091013590565b600060208284031215611fe157600080fd5b5035919050565b600060208284031215611ffa57600080fd5b8135611dfe81611f66565b6001600160401b0391909116815260200190565b6000806040838503121561202c57600080fd5b823561203781611f66565b9150602083013561204781611f66565b809150509250929050565b60006020828403121561206457600080fd5b81356001600160401b0381168114611dfe57600080fd5b6001600160a01b0391909116815260200190565b634e487b7160e01b600052604160045260246000fd5b600060208083850312156120b857600080fd5b82356001600160401b03808211156120cf57600080fd5b818501915085601f8301126120e357600080fd5b8135818111156120f5576120f561208f565b8060051b604051601f19603f8301168101818110858211171561211a5761211a61208f565b60405291825284820192508381018501918883111561213857600080fd5b938501935b8285101561215d5761214e85611f7e565b8452938501939285019261213d565b98975050505050505050565b60006020828403121561217b57600080fd5b81518015158114611dfe57600080fd5b6020808252600190820152603160f81b604082015260600190565b6000602082840312156121b857600080fd5b5051919050565b634e487b7160e01b600052601160045260246000fd5b600082198211156121e8576121e86121bf565b500190565b6020808252600190820152600d60fa1b604082015260600190565b6001600160a01b03929092168252602082015260400190565b9182526001600160a01b0316602082015260400190565b60008282101561224a5761224a6121bf565b500390565b6020808252600190820152600360fc1b604082015260600190565b6000816000190483118215151615612284576122846121bf565b500290565b6000826122a657634e487b7160e01b600052601260045260246000fd5b500490565b634e487b7160e01b600052603260045260246000fd5b60006000198214156122d5576122d56121bf565b5060010190565b634e487b7160e01b600052603160045260246000fd5b60006020828403121561230457600080fd5b8151611dfe81611f66565b6020808252600190820152601b60f91b604082015260600190565b6000806040838503121561233d57600080fd5b505080516020909101519092909150565b60005b83811015612369578181015183820152602001612351565b83811115612378576000848401525b50505050565b6000825161239081846020870161234e565b9190910192915050565b60208152600082518060208401526123b981604085016020870161234e565b601f01601f1916919091016040019291505056fe2f439c0500f79f2f3322b3665dcdaaa6967182caf9916f6ce2c64f296e609ed2f1e53200c691f394b84864158f7d32772fed29ce025460533f94d6b5ef6690646ec1ccf63c33130734196ff1971d19a46a2b28ce37b81f90ea52f4311319203fa26469706673582212207aa462377beca3101e36cf34a383d15bb2d4051af64a2acf71bc5587b51e4cc364736f6c634300080c0033",
  "linkReferences": {},
  "deployedLinkReferences": {}
}