{
  "_format": "hh-sol-artifact-1",
  "contractName": "VaultManager",
  "sourceName": "contracts/vaultManager/VaultManager.sol",
  "abi": [
    {
      "inputs": [
        {
          "internalType": "uint256",
          "name": "dust_",
          "type": "uint256"
        },
        {
          "internalType": "uint256",
          "name": "dustCollateral_",
          "type": "uint256"
        }
      ],
      "stateMutability": "nonpayable",
      "type": "constructor"
    },
    {
      "anonymous": false,
      "inputs": [
        {
          "indexed": false,
          "internalType": "uint256",
          "name": "surplusEndValue",
          "type": "uint256"
        },
        {
          "indexed": false,
          "internalType": "uint256",
          "name": "badDebtEndValue",
          "type": "uint256"
        }
      ],
      "name": "AccruedToTreasury",
      "type": "event"
    },
    {
      "anonymous": false,
      "inputs": [
        {
          "indexed": true,
          "internalType": "address",
          "name": "owner",
          "type": "address"
        },
        {
          "indexed": true,
          "internalType": "address",
          "name": "approved",
          "type": "address"
        },
        {
          "indexed": true,
          "internalType": "uint256",
          "name": "tokenId",
          "type": "uint256"
        }
      ],
      "name": "Approval",
      "type": "event"
    },
    {
      "anonymous": false,
      "inputs": [
        {
          "indexed": true,
          "internalType": "address",
          "name": "owner",
          "type": "address"
        },
        {
          "indexed": true,
          "internalType": "address",
          "name": "operator",
          "type": "address"
        },
        {
          "indexed": false,
          "internalType": "bool",
          "name": "approved",
          "type": "bool"
        }
      ],
      "name": "ApprovalForAll",
      "type": "event"
    },
    {
      "anonymous": false,
      "inputs": [
        {
          "indexed": false,
          "internalType": "uint256",
          "name": "vaultID",
          "type": "uint256"
        },
        {
          "indexed": false,
          "internalType": "uint256",
          "name": "collateralAmount",
          "type": "uint256"
        },
        {
          "indexed": false,
          "internalType": "uint8",
          "name": "isIncrease",
          "type": "uint8"
        }
      ],
      "name": "CollateralAmountUpdated",
      "type": "event"
    },
    {
      "anonymous": false,
      "inputs": [
        {
          "indexed": false,
          "internalType": "uint256",
          "name": "debtCeiling",
          "type": "uint256"
        }
      ],
      "name": "DebtCeilingUpdated",
      "type": "event"
    },
    {
      "anonymous": false,
      "inputs": [
        {
          "indexed": false,
          "internalType": "uint64",
          "name": "param",
          "type": "uint64"
        },
        {
          "indexed": false,
          "internalType": "bytes32",
          "name": "what",
          "type": "bytes32"
        }
      ],
      "name": "FiledUint64",
      "type": "event"
    },
    {
      "anonymous": false,
      "inputs": [
        {
          "indexed": false,
          "internalType": "uint256",
          "name": "value",
          "type": "uint256"
        },
        {
          "indexed": false,
          "internalType": "uint256",
          "name": "timestamp",
          "type": "uint256"
        }
      ],
      "name": "InterestAccumulatorUpdated",
      "type": "event"
    },
    {
      "anonymous": false,
      "inputs": [
        {
          "indexed": false,
          "internalType": "uint256",
          "name": "vaultID",
          "type": "uint256"
        },
        {
          "indexed": false,
          "internalType": "uint256",
          "name": "internalAmount",
          "type": "uint256"
        },
        {
          "indexed": false,
          "internalType": "uint8",
          "name": "isIncrease",
          "type": "uint8"
        }
      ],
      "name": "InternalDebtUpdated",
      "type": "event"
    },
    {
      "anonymous": false,
      "inputs": [
        {
          "indexed": false,
          "internalType": "uint256[]",
          "name": "vaultIDs",
          "type": "uint256[]"
        }
      ],
      "name": "LiquidatedVaults",
      "type": "event"
    },
    {
      "anonymous": false,
      "inputs": [
        {
          "indexed": true,
          "internalType": "address",
          "name": "_veBoostProxy",
          "type": "address"
        },
        {
          "indexed": false,
          "internalType": "uint256[]",
          "name": "xBoost",
          "type": "uint256[]"
        },
        {
          "indexed": false,
          "internalType": "uint256[]",
          "name": "yBoost",
          "type": "uint256[]"
        }
      ],
      "name": "LiquidationBoostParametersUpdated",
      "type": "event"
    },
    {
      "anonymous": false,
      "inputs": [
        {
          "indexed": true,
          "internalType": "address",
          "name": "_oracle",
          "type": "address"
        }
      ],
      "name": "OracleUpdated",
      "type": "event"
    },
    {
      "anonymous": false,
      "inputs": [
        {
          "indexed": false,
          "internalType": "bool",
          "name": "",
          "type": "bool"
        }
      ],
      "name": "ToggledWhitelisting",
      "type": "event"
    },
    {
      "anonymous": false,
      "inputs": [
        {
          "indexed": true,
          "internalType": "address",
          "name": "from",
          "type": "address"
        },
        {
          "indexed": true,
          "internalType": "address",
          "name": "to",
          "type": "address"
        },
        {
          "indexed": true,
          "internalType": "uint256",
          "name": "tokenId",
          "type": "uint256"
        }
      ],
      "name": "Transfer",
      "type": "event"
    },
    {
      "inputs": [],
      "name": "BASE_INTEREST",
      "outputs": [
        {
          "internalType": "uint256",
          "name": "",
          "type": "uint256"
        }
      ],
      "stateMutability": "view",
      "type": "function"
    },
    {
      "inputs": [],
      "name": "BASE_PARAMS",
      "outputs": [
        {
          "internalType": "uint256",
          "name": "",
          "type": "uint256"
        }
      ],
      "stateMutability": "view",
      "type": "function"
    },
    {
      "inputs": [],
      "name": "HALF_BASE_INTEREST",
      "outputs": [
        {
          "internalType": "uint256",
          "name": "",
          "type": "uint256"
        }
      ],
      "stateMutability": "view",
      "type": "function"
    },
    {
      "inputs": [],
      "name": "accrueInterestToTreasury",
      "outputs": [
        {
          "internalType": "uint256",
          "name": "surplusValue",
          "type": "uint256"
        },
        {
          "internalType": "uint256",
          "name": "badDebtValue",
          "type": "uint256"
        }
      ],
      "stateMutability": "nonpayable",
      "type": "function"
    },
    {
      "inputs": [
        {
          "internalType": "enum ActionType[]",
          "name": "actions",
          "type": "uint8[]"
        },
        {
          "internalType": "bytes[]",
          "name": "datas",
          "type": "bytes[]"
        },
        {
          "internalType": "address",
          "name": "from",
          "type": "address"
        },
        {
          "internalType": "address",
          "name": "to",
          "type": "address"
        }
      ],
      "name": "angle",
      "outputs": [
        {
          "components": [
            {
              "internalType": "uint256",
              "name": "stablecoinAmountToGive",
              "type": "uint256"
            },
            {
              "internalType": "uint256",
              "name": "stablecoinAmountToReceive",
              "type": "uint256"
            },
            {
              "internalType": "uint256",
              "name": "collateralAmountToGive",
              "type": "uint256"
            },
            {
              "internalType": "uint256",
              "name": "collateralAmountToReceive",
              "type": "uint256"
            }
          ],
          "internalType": "struct PaymentData",
          "name": "",
          "type": "tuple"
        }
      ],
      "stateMutability": "payable",
      "type": "function"
    },
    {
      "inputs": [
        {
          "internalType": "enum ActionType[]",
          "name": "actions",
          "type": "uint8[]"
        },
        {
          "internalType": "bytes[]",
          "name": "datas",
          "type": "bytes[]"
        },
        {
          "internalType": "address",
          "name": "from",
          "type": "address"
        },
        {
          "internalType": "address",
          "name": "to",
          "type": "address"
        },
        {
          "internalType": "address",
          "name": "who",
          "type": "address"
        },
        {
          "internalType": "bytes",
          "name": "repayData",
          "type": "bytes"
        }
      ],
      "name": "angle",
      "outputs": [
        {
          "components": [
            {
              "internalType": "uint256",
              "name": "stablecoinAmountToGive",
              "type": "uint256"
            },
            {
              "internalType": "uint256",
              "name": "stablecoinAmountToReceive",
              "type": "uint256"
            },
            {
              "internalType": "uint256",
              "name": "collateralAmountToGive",
              "type": "uint256"
            },
            {
              "internalType": "uint256",
              "name": "collateralAmountToReceive",
              "type": "uint256"
            }
          ],
          "internalType": "struct PaymentData",
          "name": "paymentData",
          "type": "tuple"
        }
      ],
      "stateMutability": "payable",
      "type": "function"
    },
    {
      "inputs": [
        {
          "internalType": "address",
          "name": "to",
          "type": "address"
        },
        {
          "internalType": "uint256",
          "name": "vaultID",
          "type": "uint256"
        }
      ],
      "name": "approve",
      "outputs": [],
      "stateMutability": "nonpayable",
      "type": "function"
    },
    {
      "inputs": [],
      "name": "badDebt",
      "outputs": [
        {
          "internalType": "uint256",
          "name": "",
          "type": "uint256"
        }
      ],
      "stateMutability": "view",
      "type": "function"
    },
    {
      "inputs": [
        {
          "internalType": "address",
          "name": "owner",
          "type": "address"
        }
      ],
      "name": "balanceOf",
      "outputs": [
        {
          "internalType": "uint256",
          "name": "",
          "type": "uint256"
        }
      ],
      "stateMutability": "view",
      "type": "function"
    },
    {
      "inputs": [],
      "name": "borrowFee",
      "outputs": [
        {
          "internalType": "uint64",
          "name": "",
          "type": "uint64"
        }
      ],
      "stateMutability": "view",
      "type": "function"
    },
    {
      "inputs": [
        {
          "internalType": "uint256",
          "name": "vaultID",
          "type": "uint256"
        },
        {
          "internalType": "address",
          "name": "liquidator",
          "type": "address"
        }
      ],
      "name": "checkLiquidation",
      "outputs": [
        {
          "components": [
            {
              "internalType": "uint256",
              "name": "maxStablecoinAmountToRepay",
              "type": "uint256"
            },
            {
              "internalType": "uint256",
              "name": "maxCollateralAmountGiven",
              "type": "uint256"
            },
            {
              "internalType": "uint256",
              "name": "thresholdRepayAmount",
              "type": "uint256"
            },
            {
              "internalType": "uint256",
              "name": "discount",
              "type": "uint256"
            },
            {
              "internalType": "uint256",
              "name": "currentDebt",
              "type": "uint256"
            }
          ],
          "internalType": "struct LiquidationOpportunity",
          "name": "liqOpp",
          "type": "tuple"
        }
      ],
      "stateMutability": "view",
      "type": "function"
    },
    {
      "inputs": [],
      "name": "collateral",
      "outputs": [
        {
          "internalType": "contract IERC20",
          "name": "",
          "type": "address"
        }
      ],
      "stateMutability": "view",
      "type": "function"
    },
    {
      "inputs": [],
      "name": "collateralFactor",
      "outputs": [
        {
          "internalType": "uint64",
          "name": "",
          "type": "uint64"
        }
      ],
      "stateMutability": "view",
      "type": "function"
    },
    {
      "inputs": [
        {
          "internalType": "address",
          "name": "toVault",
          "type": "address"
        }
      ],
      "name": "createVault",
      "outputs": [
        {
          "internalType": "uint256",
          "name": "",
          "type": "uint256"
        }
      ],
      "stateMutability": "nonpayable",
      "type": "function"
    },
    {
      "inputs": [],
      "name": "debtCeiling",
      "outputs": [
        {
          "internalType": "uint256",
          "name": "",
          "type": "uint256"
        }
      ],
      "stateMutability": "view",
      "type": "function"
    },
    {
      "inputs": [],
      "name": "dust",
      "outputs": [
        {
          "internalType": "uint256",
          "name": "",
          "type": "uint256"
        }
      ],
      "stateMutability": "view",
      "type": "function"
    },
    {
      "inputs": [
        {
          "internalType": "uint256",
          "name": "vaultID",
          "type": "uint256"
        }
      ],
      "name": "getApproved",
      "outputs": [
        {
          "internalType": "address",
          "name": "",
          "type": "address"
        }
      ],
      "stateMutability": "view",
      "type": "function"
    },
    {
      "inputs": [
        {
          "internalType": "address",
          "name": "spender",
          "type": "address"
        }
      ],
      "name": "getControlledVaults",
      "outputs": [
        {
          "internalType": "uint256[]",
          "name": "",
          "type": "uint256[]"
        },
        {
          "internalType": "uint256",
          "name": "",
          "type": "uint256"
        }
      ],
      "stateMutability": "view",
      "type": "function"
    },
    {
      "inputs": [
        {
          "internalType": "uint256",
          "name": "vaultID",
          "type": "uint256"
        },
        {
          "internalType": "uint256",
          "name": "stablecoinAmount",
          "type": "uint256"
        },
        {
          "internalType": "uint256",
          "name": "senderBorrowFee",
          "type": "uint256"
        }
      ],
      "name": "getDebtOut",
      "outputs": [],
      "stateMutability": "nonpayable",
      "type": "function"
    },
    {
      "inputs": [],
      "name": "getTotalDebt",
      "outputs": [
        {
          "internalType": "uint256",
          "name": "",
          "type": "uint256"
        }
      ],
      "stateMutability": "view",
      "type": "function"
    },
    {
      "inputs": [
        {
          "internalType": "uint256",
          "name": "vaultID",
          "type": "uint256"
        }
      ],
      "name": "getVaultDebt",
      "outputs": [
        {
          "internalType": "uint256",
          "name": "",
          "type": "uint256"
        }
      ],
      "stateMutability": "view",
      "type": "function"
    },
    {
      "inputs": [
        {
          "internalType": "contract ITreasury",
          "name": "_treasury",
          "type": "address"
        },
        {
          "internalType": "contract IERC20",
          "name": "_collateral",
          "type": "address"
        },
        {
          "internalType": "contract IOracle",
          "name": "_oracle",
          "type": "address"
        },
        {
          "components": [
            {
              "internalType": "uint256",
              "name": "debtCeiling",
              "type": "uint256"
            },
            {
              "internalType": "uint64",
              "name": "collateralFactor",
              "type": "uint64"
            },
            {
              "internalType": "uint64",
              "name": "targetHealthFactor",
              "type": "uint64"
            },
            {
              "internalType": "uint64",
              "name": "borrowFee",
              "type": "uint64"
            },
            {
              "internalType": "uint64",
              "name": "interestRate",
              "type": "uint64"
            },
            {
              "internalType": "uint64",
              "name": "liquidationSurcharge",
              "type": "uint64"
            },
            {
              "internalType": "uint64",
              "name": "maxLiquidationDiscount",
              "type": "uint64"
            },
            {
              "internalType": "bool",
              "name": "whitelistingActivated",
              "type": "bool"
            },
            {
              "internalType": "uint256",
              "name": "baseBoost",
              "type": "uint256"
            }
          ],
          "internalType": "struct VaultParameters",
          "name": "params",
          "type": "tuple"
        },
        {
          "internalType": "string",
          "name": "_symbol",
          "type": "string"
        }
      ],
      "name": "initialize",
      "outputs": [],
      "stateMutability": "nonpayable",
      "type": "function"
    },
    {
      "inputs": [],
      "name": "interestAccumulator",
      "outputs": [
        {
          "internalType": "uint256",
          "name": "",
          "type": "uint256"
        }
      ],
      "stateMutability": "view",
      "type": "function"
    },
    {
      "inputs": [],
      "name": "interestRate",
      "outputs": [
        {
          "internalType": "uint64",
          "name": "",
          "type": "uint64"
        }
      ],
      "stateMutability": "view",
      "type": "function"
    },
    {
      "inputs": [
        {
          "internalType": "address",
          "name": "owner",
          "type": "address"
        },
        {
          "internalType": "address",
          "name": "operator",
          "type": "address"
        }
      ],
      "name": "isApprovedForAll",
      "outputs": [
        {
          "internalType": "bool",
          "name": "",
          "type": "bool"
        }
      ],
      "stateMutability": "view",
      "type": "function"
    },
    {
      "inputs": [
        {
          "internalType": "address",
          "name": "spender",
          "type": "address"
        },
        {
          "internalType": "uint256",
          "name": "vaultID",
          "type": "uint256"
        }
      ],
      "name": "isApprovedOrOwner",
      "outputs": [
        {
          "internalType": "bool",
          "name": "",
          "type": "bool"
        }
      ],
      "stateMutability": "view",
      "type": "function"
    },
    {
      "inputs": [
        {
          "internalType": "address",
          "name": "",
          "type": "address"
        }
      ],
      "name": "isWhitelisted",
      "outputs": [
        {
          "internalType": "bool",
          "name": "",
          "type": "bool"
        }
      ],
      "stateMutability": "view",
      "type": "function"
    },
    {
      "inputs": [],
      "name": "lastInterestAccumulatorUpdated",
      "outputs": [
        {
          "internalType": "uint256",
          "name": "",
          "type": "uint256"
        }
      ],
      "stateMutability": "view",
      "type": "function"
    },
    {
      "inputs": [
        {
          "internalType": "uint256[]",
          "name": "vaultIDs",
          "type": "uint256[]"
        },
        {
          "internalType": "uint256[]",
          "name": "amounts",
          "type": "uint256[]"
        },
        {
          "internalType": "address",
          "name": "from",
          "type": "address"
        },
        {
          "internalType": "address",
          "name": "to",
          "type": "address"
        },
        {
          "internalType": "address",
          "name": "who",
          "type": "address"
        },
        {
          "internalType": "bytes",
          "name": "data",
          "type": "bytes"
        }
      ],
      "name": "liquidate",
      "outputs": [
        {
          "components": [
            {
              "internalType": "uint256",
              "name": "stablecoinAmountToReceive",
              "type": "uint256"
            },
            {
              "internalType": "uint256",
              "name": "collateralAmountToGive",
              "type": "uint256"
            },
            {
              "internalType": "uint256",
              "name": "badDebtFromLiquidation",
              "type": "uint256"
            },
            {
              "internalType": "uint256",
              "name": "oracleValue",
              "type": "uint256"
            },
            {
              "internalType": "uint256",
              "name": "newInterestAccumulator",
              "type": "uint256"
            }
          ],
          "internalType": "struct LiquidatorData",
          "name": "liqData",
          "type": "tuple"
        }
      ],
      "stateMutability": "nonpayable",
      "type": "function"
    },
    {
      "inputs": [
        {
          "internalType": "uint256[]",
          "name": "vaultIDs",
          "type": "uint256[]"
        },
        {
          "internalType": "uint256[]",
          "name": "amounts",
          "type": "uint256[]"
        },
        {
          "internalType": "address",
          "name": "from",
          "type": "address"
        },
        {
          "internalType": "address",
          "name": "to",
          "type": "address"
        }
      ],
      "name": "liquidate",
      "outputs": [
        {
          "components": [
            {
              "internalType": "uint256",
              "name": "stablecoinAmountToReceive",
              "type": "uint256"
            },
            {
              "internalType": "uint256",
              "name": "collateralAmountToGive",
              "type": "uint256"
            },
            {
              "internalType": "uint256",
              "name": "badDebtFromLiquidation",
              "type": "uint256"
            },
            {
              "internalType": "uint256",
              "name": "oracleValue",
              "type": "uint256"
            },
            {
              "internalType": "uint256",
              "name": "newInterestAccumulator",
              "type": "uint256"
            }
          ],
          "internalType": "struct LiquidatorData",
          "name": "",
          "type": "tuple"
        }
      ],
      "stateMutability": "nonpayable",
      "type": "function"
    },
    {
      "inputs": [],
      "name": "liquidationSurcharge",
      "outputs": [
        {
          "internalType": "uint64",
          "name": "",
          "type": "uint64"
        }
      ],
      "stateMutability": "view",
      "type": "function"
    },
    {
      "inputs": [],
      "name": "maxLiquidationDiscount",
      "outputs": [
        {
          "internalType": "uint64",
          "name": "",
          "type": "uint64"
        }
      ],
      "stateMutability": "view",
      "type": "function"
    },
    {
      "inputs": [],
      "name": "name",
      "outputs": [
        {
          "internalType": "string",
          "name": "",
          "type": "string"
        }
      ],
      "stateMutability": "view",
      "type": "function"
    },
    {
      "inputs": [],
      "name": "oracle",
      "outputs": [
        {
          "internalType": "contract IOracle",
          "name": "",
          "type": "address"
        }
      ],
      "stateMutability": "view",
      "type": "function"
    },
    {
      "inputs": [
        {
          "internalType": "uint256",
          "name": "vaultID",
          "type": "uint256"
        }
      ],
      "name": "ownerOf",
      "outputs": [
        {
          "internalType": "address",
          "name": "",
          "type": "address"
        }
      ],
      "stateMutability": "view",
      "type": "function"
    },
    {
      "inputs": [],
      "name": "paused",
      "outputs": [
        {
          "internalType": "bool",
          "name": "",
          "type": "bool"
        }
      ],
      "stateMutability": "view",
      "type": "function"
    },
    {
      "inputs": [
        {
          "internalType": "address",
          "name": "from",
          "type": "address"
        },
        {
          "internalType": "address",
          "name": "to",
          "type": "address"
        },
        {
          "internalType": "uint256",
          "name": "vaultID",
          "type": "uint256"
        }
      ],
      "name": "safeTransferFrom",
      "outputs": [],
      "stateMutability": "nonpayable",
      "type": "function"
    },
    {
      "inputs": [
        {
          "internalType": "address",
          "name": "from",
          "type": "address"
        },
        {
          "internalType": "address",
          "name": "to",
          "type": "address"
        },
        {
          "internalType": "uint256",
          "name": "vaultID",
          "type": "uint256"
        },
        {
          "internalType": "bytes",
          "name": "_data",
          "type": "bytes"
        }
      ],
      "name": "safeTransferFrom",
      "outputs": [],
      "stateMutability": "nonpayable",
      "type": "function"
    },
    {
      "inputs": [
        {
          "internalType": "address",
          "name": "operator",
          "type": "address"
        },
        {
          "internalType": "bool",
          "name": "approved",
          "type": "bool"
        }
      ],
      "name": "setApprovalForAll",
      "outputs": [],
      "stateMutability": "nonpayable",
      "type": "function"
    },
    {
      "inputs": [
        {
          "internalType": "string",
          "name": "baseURI_",
          "type": "string"
        }
      ],
      "name": "setBaseURI",
      "outputs": [],
      "stateMutability": "nonpayable",
      "type": "function"
    },
    {
      "inputs": [
        {
          "internalType": "uint256",
          "name": "_debtCeiling",
          "type": "uint256"
        }
      ],
      "name": "setDebtCeiling",
      "outputs": [],
      "stateMutability": "nonpayable",
      "type": "function"
    },
    {
      "inputs": [
        {
          "internalType": "address",
          "name": "_veBoostProxy",
          "type": "address"
        },
        {
          "internalType": "uint256[]",
          "name": "xBoost",
          "type": "uint256[]"
        },
        {
          "internalType": "uint256[]",
          "name": "yBoost",
          "type": "uint256[]"
        }
      ],
      "name": "setLiquidationBoostParameters",
      "outputs": [],
      "stateMutability": "nonpayable",
      "type": "function"
    },
    {
      "inputs": [
        {
          "internalType": "address",
          "name": "_oracle",
          "type": "address"
        }
      ],
      "name": "setOracle",
      "outputs": [],
      "stateMutability": "nonpayable",
      "type": "function"
    },
    {
      "inputs": [
        {
          "internalType": "address",
          "name": "_treasury",
          "type": "address"
        }
      ],
      "name": "setTreasury",
      "outputs": [],
      "stateMutability": "nonpayable",
      "type": "function"
    },
    {
      "inputs": [
        {
          "internalType": "uint64",
          "name": "param",
          "type": "uint64"
        },
        {
          "internalType": "bytes32",
          "name": "what",
          "type": "bytes32"
        }
      ],
      "name": "setUint64",
      "outputs": [],
      "stateMutability": "nonpayable",
      "type": "function"
    },
    {
      "inputs": [],
      "name": "stablecoin",
      "outputs": [
        {
          "internalType": "contract IAgToken",
          "name": "",
          "type": "address"
        }
      ],
      "stateMutability": "view",
      "type": "function"
    },
    {
      "inputs": [
        {
          "internalType": "bytes4",
          "name": "interfaceId",
          "type": "bytes4"
        }
      ],
      "name": "supportsInterface",
      "outputs": [
        {
          "internalType": "bool",
          "name": "",
          "type": "bool"
        }
      ],
      "stateMutability": "pure",
      "type": "function"
    },
    {
      "inputs": [],
      "name": "surplus",
      "outputs": [
        {
          "internalType": "uint256",
          "name": "",
          "type": "uint256"
        }
      ],
      "stateMutability": "view",
      "type": "function"
    },
    {
      "inputs": [],
      "name": "symbol",
      "outputs": [
        {
          "internalType": "string",
          "name": "",
          "type": "string"
        }
      ],
      "stateMutability": "view",
      "type": "function"
    },
    {
      "inputs": [],
      "name": "targetHealthFactor",
      "outputs": [
        {
          "internalType": "uint64",
          "name": "",
          "type": "uint64"
        }
      ],
      "stateMutability": "view",
      "type": "function"
    },
    {
      "inputs": [],
      "name": "togglePause",
      "outputs": [],
      "stateMutability": "nonpayable",
      "type": "function"
    },
    {
      "inputs": [
        {
          "internalType": "address",
          "name": "target",
          "type": "address"
        }
      ],
      "name": "toggleWhitelist",
      "outputs": [],
      "stateMutability": "nonpayable",
      "type": "function"
    },
    {
      "inputs": [],
      "name": "toggleWhitelisting",
      "outputs": [],
      "stateMutability": "nonpayable",
      "type": "function"
    },
    {
      "inputs": [
        {
          "internalType": "uint256",
          "name": "vaultID",
          "type": "uint256"
        }
      ],
      "name": "tokenURI",
      "outputs": [
        {
          "internalType": "string",
          "name": "",
          "type": "string"
        }
      ],
      "stateMutability": "view",
      "type": "function"
    },
    {
      "inputs": [],
      "name": "totalNormalizedDebt",
      "outputs": [
        {
          "internalType": "uint256",
          "name": "",
          "type": "uint256"
        }
      ],
      "stateMutability": "view",
      "type": "function"
    },
    {
      "inputs": [
        {
          "internalType": "address",
          "name": "from",
          "type": "address"
        },
        {
          "internalType": "address",
          "name": "to",
          "type": "address"
        },
        {
          "internalType": "uint256",
          "name": "vaultID",
          "type": "uint256"
        }
      ],
      "name": "transferFrom",
      "outputs": [],
      "stateMutability": "nonpayable",
      "type": "function"
    },
    {
      "inputs": [],
      "name": "treasury",
      "outputs": [
        {
          "internalType": "contract ITreasury",
          "name": "",
          "type": "address"
        }
      ],
      "stateMutability": "view",
      "type": "function"
    },
    {
      "inputs": [
        {
          "internalType": "uint256",
          "name": "",
          "type": "uint256"
        }
      ],
      "name": "vaultData",
      "outputs": [
        {
          "internalType": "uint256",
          "name": "collateralAmount",
          "type": "uint256"
        },
        {
          "internalType": "uint256",
          "name": "normalizedDebt",
          "type": "uint256"
        }
      ],
      "stateMutability": "view",
      "type": "function"
    },
    {
      "inputs": [],
      "name": "vaultIDCount",
      "outputs": [
        {
          "internalType": "uint256",
          "name": "",
          "type": "uint256"
        }
      ],
      "stateMutability": "view",
      "type": "function"
    },
    {
      "inputs": [],
      "name": "veBoostProxy",
      "outputs": [
        {
          "internalType": "contract IVeBoostProxy",
          "name": "",
          "type": "address"
        }
      ],
      "stateMutability": "view",
      "type": "function"
    },
    {
      "inputs": [],
      "name": "whitelistingActivated",
      "outputs": [
        {
          "internalType": "bool",
          "name": "",
          "type": "bool"
        }
      ],
      "stateMutability": "view",
      "type": "function"
    },
    {
      "inputs": [
        {
          "internalType": "uint256",
          "name": "",
          "type": "uint256"
        }
      ],
      "name": "xLiquidationBoost",
      "outputs": [
        {
          "internalType": "uint256",
          "name": "",
          "type": "uint256"
        }
      ],
      "stateMutability": "view",
      "type": "function"
    },
    {
      "inputs": [
        {
          "internalType": "uint256",
          "name": "",
          "type": "uint256"
        }
      ],
      "name": "yLiquidationBoost",
      "outputs": [
        {
          "internalType": "uint256",
          "name": "",
          "type": "uint256"
        }
      ],
      "stateMutability": "view",
      "type": "function"
    }
  ],
  "bytecode": "0x60c06040523480156200001157600080fd5b5060405162005efb38038062005efb833981016040819052620000349162000136565b60005482908290610100900460ff16620000555760005460ff16156200005f565b6200005f62000112565b620000c75760405162461bcd60e51b815260206004820152602e60248201527f496e697469616c697a61626c653a20636f6e747261637420697320616c72656160448201526d191e481a5b9a5d1a585b1a5e995960921b606482015260840160405180910390fd5b600054610100900460ff16158015620000ea576000805461ffff19166101011790555b608083905260a0829052801562000107576000805461ff00191690555b50505050506200015b565b60006200012a306200013060201b6200337d1760201c565b15905090565b3b151590565b600080604083850312156200014a57600080fd5b505080516020909101519092909150565b60805160a051615d57620001a460003960008181613acc0152613afd015260008181610aa9015281816139aa01528181613a4801528181613ccd01526147e20152615d576000f3fe6080604052600436106102c85760003560e01c8063010db195146102cd57806301ffc9a71461030357806306fdde0314610333578063081812fc14610355578063087a600714610375578063095ea7b3146103995780630e198f22146103bb57806313888565146103d157806323b872dd146103e7578063254cf43914610407578063307439af1461044657806334ce998a1461047357806335836f151461048857806339393ac9146104a857806339eb4dc6146104c85780633ae2325f146104e95780633af32abf146105095780633c2e941b1461053957806342842e0e1461054f578063430c20811461056f5780634f7e43df1461058f57806355f804b3146105b65780635c975abb146105d657806361d027b3146105f75780636352211e1461061757806370a082311461063757806374107543146106575780637aacfffa146106775780637adbf973146106c05780637c3a00fd146106e05780637dc0d1d0146107075780637e53bd97146107275780637e56d47c1461074757806383ba59fc1461076757806389050f1d1461079557806395d89b41146107b45780639a3b6f2f146107c95780639f48118f1461080f578063a22cb46514610827578063af2c8c2e14610847578063b1511cc91461085d578063b4bd6f461461087d578063b88d4fde1461089d578063bbcac557146108bd578063c4ae3168146108d3578063c66d8b01146108e8578063c87b56dd14610908578063d645c39314610928578063d6bcab2a14610948578063d8dfeb4514610968578063de1f776514610988578063de8fc698146109a7578063df011c41146109ba578063e182b883146109da578063e1c84ea4146109fa578063e626648a14610a10578063e985e9c514610a37578063e9cbd82214610a57578063f0f4426014610a77578063fad9aba314610a97578063fbefa41314610acb578063fc29b02114610ae0578063fd527cf814610b00575b600080fd5b3480156102d957600080fd5b506037546102ed906001600160a01b031681565b6040516102fa9190614c6c565b60405180910390f35b34801561030f57600080fd5b5061032361031e366004614c99565b610b15565b60405190151581526020016102fa565b34801561033f57600080fd5b50610348610b7a565b6040516102fa9190614d0e565b34801561036157600080fd5b506102ed610370366004614d21565b610c08565b34801561038157600080fd5b5061038b603f5481565b6040519081526020016102fa565b3480156103a557600080fd5b506103b96103b4366004614d4f565b610c41565b005b3480156103c757600080fd5b5061038b603e5481565b3480156103dd57600080fd5b5061038b60415481565b3480156103f357600080fd5b506103b9610402366004614d7b565b610cdc565b34801561041357600080fd5b50603c5461042e90600160401b90046001600160401b031681565b6040516001600160401b0390911681526020016102fa565b34801561045257600080fd5b50610466610461366004614dbc565b610d16565b6040516102fa9190614dec565b34801561047f57600080fd5b5061038b610dc8565b34801561049457600080fd5b5061038b6104a3366004614d21565b610dfa565b3480156104b457600080fd5b506103b96104c3366004614e25565b610e36565b3480156104d457600080fd5b50603d5461032390600160801b900460ff1681565b3480156104f557600080fd5b5061038b610504366004614d21565b610eec565b34801561051557600080fd5b50610323610524366004614e25565b60446020526000908152604090205460ff1681565b34801561054557600080fd5b5061038b60455481565b34801561055b57600080fd5b506103b961056a366004614d7b565b610f0d565b34801561057b57600080fd5b5061032361058a366004614d4f565b610f28565b34801561059b57600080fd5b50603d5461042e90600160401b90046001600160401b031681565b3480156105c257600080fd5b506103b96105d1366004614ef7565b610f34565b3480156105e257600080fd5b50603d5461032390600160881b900460ff1681565b34801561060357600080fd5b506033546102ed906001600160a01b031681565b34801561062357600080fd5b506102ed610632366004614d21565b610fd8565b34801561064357600080fd5b5061038b610652366004614e25565b610fe3565b34801561066357600080fd5b506103b9610672366004614f42565b61103b565b34801561068357600080fd5b506106ab610692366004614d21565b6043602052600090815260409020805460019091015482565b604080519283526020830191909152016102fa565b3480156106cc57600080fd5b506103b96106db366004614e25565b6113ee565b3480156106ec57600080fd5b50603c5461042e90600160c01b90046001600160401b031681565b34801561071357600080fd5b506036546102ed906001600160a01b031681565b34801561073357600080fd5b506103b9610742366004614fec565b61155b565b34801561075357600080fd5b50610466610762366004615061565b611749565b34801561077357600080fd5b50610787610782366004614e25565b611c36565b6040516102fa929190615160565b3480156107a157600080fd5b5061038b676765c793fa10079d601a1b81565b3480156107c057600080fd5b50610348611d56565b6107dc6107d736600461526a565b611d63565b6040516102fa91908151815260208083015190820152604080830151908201526060918201519181019190915260800190565b34801561081b57600080fd5b5061038b633b9aca0081565b34801561083357600080fd5b506103b9610842366004615300565b611d98565b34801561085357600080fd5b5061038b60405481565b34801561086957600080fd5b506103b9610878366004614d21565b611e42565b34801561088957600080fd5b5061038b610898366004614e25565b611f0b565b3480156108a957600080fd5b506103b96108b836600461532e565b611f46565b3480156108c957600080fd5b5061038b60425481565b3480156108df57600080fd5b506103b9611f82565b3480156108f457600080fd5b50603d5461042e906001600160401b031681565b34801561091457600080fd5b50610348610923366004614d21565b612030565b34801561093457600080fd5b506103b9610943366004615399565b612188565b34801561095457600080fd5b506103b96109633660046153c5565b6122e2565b34801561097457600080fd5b506034546102ed906001600160a01b031681565b34801561099457600080fd5b5061038b676765c793fa10079d601b1b81565b6107dc6109b5366004615459565b61288e565b3480156109c657600080fd5b50603c5461042e906001600160401b031681565b3480156109e657600080fd5b5061038b6109f5366004614d21565b61307b565b348015610a0657600080fd5b5061038b60395481565b348015610a1c57600080fd5b50603c5461042e90600160801b90046001600160401b031681565b348015610a4357600080fd5b50610323610a523660046154b7565b61308b565b348015610a6357600080fd5b506035546102ed906001600160a01b031681565b348015610a8357600080fd5b506103b9610a92366004614e25565b6130b9565b348015610aa357600080fd5b5061038b7f000000000000000000000000000000000000000000000000000000000000000081565b348015610ad757600080fd5b506103b9613158565b348015610aec57600080fd5b50610466610afb3660046154e5565b613235565b348015610b0c57600080fd5b506106ab61325f565b60006001600160e01b03198216635b5e139f60e01b1480610b4657506001600160e01b031982166380ac58cd60e01b145b80610b5957506001600160e01b03198216155b80610b7457506001600160e01b031982166301ffc9a760e01b145b92915050565b607d8054610b8790615541565b80601f0160208091040260200160405190810160405280929190818152602001828054610bb390615541565b8015610c005780601f10610bd557610100808354040283529160200191610c00565b820191906000526020600020905b815481529060010190602001808311610be357829003601f168201915b505050505081565b6000610c1382613383565b610c385760405162461bcd60e51b8152600401610c2f90615576565b60405180910390fd5b610b74826133a0565b6000610c4c826133bb565b9050806001600160a01b0316836001600160a01b03161415610c955760405162461bcd60e51b8152602060048201526002602482015261323760f01b6044820152606401610c2f565b336001600160a01b0382161480610cb15750610cb1813361308b565b610ccd5760405162461bcd60e51b8152600401610c2f90615592565b610cd783836133f0565b505050565b3381610ce8828261345e565b610d045760405162461bcd60e51b8152600401610c2f90615592565b610d0f8585856134dc565b5050505050565b610d1e614b42565b60008381526043602090815260409182902082518084018452815481526001909101548183015260365483516315f789a960e21b81529351610dc194929387936001600160a01b03909316926357de26a492600480830193928290030181865afa158015610d90573d6000803e3d6000fd5b505050506040513d601f19601f82011682018060405250810190610db491906155ae565b610dbc613628565b6137c4565b9392505050565b6000676765c793fa10079d601b1b610dde613628565b604054610deb91906155dd565b610df59190615612565b905090565b6000676765c793fa10079d601b1b610e10613628565b600084815260436020526040902060010154610e2c91906155dd565b610b749190615612565b603354604051631c86b03760e31b81526001600160a01b039091169063e43581b890610e66903390600401614c6c565b602060405180830381865afa158015610e83573d6000803e3d6000fd5b505050506040513d601f19601f82011682018060405250810190610ea79190615626565b610ec35760405162461bcd60e51b8152600401610c2f90615643565b6001600160a01b03166000908152604460205260409020805460ff19811660ff90911615179055565b603b8181548110610efc57600080fd5b600091825260209091200154905081565b610cd783838360405180602001604052806000815250611f46565b6000610dc1838361345e565b60335460405163521d4de960e01b81526001600160a01b039091169063521d4de990610f64903390600401614c6c565b602060405180830381865afa158015610f81573d6000803e3d6000fd5b505050506040513d601f19601f82011682018060405250810190610fa59190615626565b610fc15760405162461bcd60e51b8152600401610c2f9061565e565b8051610fd4906046906020840190614b71565b5050565b6000610b74826133bb565b60006001600160a01b03821661101f5760405162461bcd60e51b81526020600482015260016024820152600360fc1b6044820152606401610c2f565b506001600160a01b031660009081526048602052604090205490565b60335460405163521d4de960e01b81526001600160a01b039091169063521d4de99061106b903390600401614c6c565b602060405180830381865afa158015611088573d6000803e3d6000fd5b505050506040513d601f19601f820116820180604052508101906110ac9190615626565b6110c85760405162461bcd60e51b8152600401610c2f9061565e565b806f31b7b63630ba32b930b62330b1ba37b960811b141561113257603d546001600160401b0390811690831611156111125760405162461bcd60e51b8152600401610c2f90615679565b603c80546001600160401b0319166001600160401b0384161790556113a7565b80713a30b933b2ba2432b0b63a342330b1ba37b960711b14156111ba57633b9aca00826001600160401b031610156111915760405162461bcd60e51b8152602060048201526002602482015261313760f01b6044820152606401610c2f565b603c8054600160401b600160801b031916600160401b6001600160401b038516021790556113a7565b8068626f72726f7746656560b81b141561122457633b9aca00826001600160401b031611156111fb5760405162461bcd60e51b8152600401610c2f90615679565b603c8054600160801b600160c01b031916600160801b6001600160401b038516021790556113a7565b806b696e7465726573745261746560a01b141561126957611243613b77565b50603c80546001600160c01b0316600160c01b6001600160401b038516021790556113a7565b80736c69717569646174696f6e53757263686172676560601b141561130457603c546001600160401b038084169116118015906112b35750633b9aca00826001600160401b031611155b6112e45760405162461bcd60e51b8152602060048201526002602482015261062760f31b6044820152606401610c2f565b603d80546001600160401b0319166001600160401b0384161790556113a7565b80751b585e131a5c5d5a59185d1a5bdb911a5cd8dbdd5b9d60521b141561137a57633b9aca00826001600160401b0316106113515760405162461bcd60e51b8152600401610c2f90615679565b603d8054600160401b600160801b031916600160401b6001600160401b038516021790556113a7565b60405162461bcd60e51b8152602060048201526002602482015261343360f01b6044820152606401610c2f565b604080516001600160401b0384168152602081018390527f13b367dac93b85d1ed9b3d8961d8b48e1a677c9800bb1613b4b0416b2d5b61d091015b60405180910390a15050565b603354604051631c86b03760e31b81526001600160a01b039091169063e43581b89061141e903390600401614c6c565b602060405180830381865afa15801561143b573d6000803e3d6000fd5b505050506040513d601f19601f8201168201806040525081019061145f9190615626565b61147b5760405162461bcd60e51b8152600401610c2f90615643565b603354604080516361d027b360e01b815290516001600160a01b03928316928416916361d027b39160048083019260209291908290030181865afa1580156114c7573d6000803e3d6000fd5b505050506040513d601f19601f820116820180604052508101906114eb9190615694565b6001600160a01b0316146115115760405162461bcd60e51b8152600401610c2f906156b1565b603680546001600160a01b0319166001600160a01b0383169081179091556040517f3df77beb5db05fcdd70a30fc8adf3f83f9501b68579455adbd100b818094039490600090a250565b60335460405163521d4de960e01b81526001600160a01b039091169063521d4de99061158b903390600401614c6c565b602060405180830381865afa1580156115a8573d6000803e3d6000fd5b505050506040513d601f19601f820116820180604052508101906115cc9190615626565b6115e85760405162461bcd60e51b8152600401610c2f9061565e565b805182511480156116135750600081600081518110611609576116096156cd565b6020026020010151115b80156116a257506001600160a01b03831615806116a257508160008151811061163e5761163e6156cd565b602002602001015182600181518110611659576116596156cd565b60200260200101511180156116a257508060008151811061167c5761167c6156cd565b602002602001015181600181518110611697576116976156cd565b602002602001015110155b6116be5760405162461bcd60e51b8152600401610c2f906156e3565b603780546001600160a01b0319166001600160a01b03851617905581516116ec90603a906020850190614bf5565b50805161170090603b906020840190614bf5565b50826001600160a01b03167feb74d4d9fea592587c926aeb35eb6a7893fb28db0c1c8eb2eb3c586e7164b76c838360405161173c9291906156ff565b60405180910390a2505050565b611751614b42565b603d54600160881b900460ff161561177b5760405162461bcd60e51b8152600401610c2f90615724565b6002600154141561179e5760405162461bcd60e51b8152600401610c2f90615740565b600260015585518751146117d95760405162461bcd60e51b8152602060048201526002602482015261323560f01b6044820152606401610c2f565b603660009054906101000a90046001600160a01b03166001600160a01b03166357de26a46040518163ffffffff1660e01b8152600401602060405180830381865afa15801561182c573d6000803e3d6000fd5b505050506040513d601f19601f8201168201806040525081019061185091906155ae565b606082015261185d613b77565b608082015260005b8751811015611b75576000604360008a8481518110611886576118866156cd565b6020026020010151815260200190815260200160002060405180604001604052908160008201548152602001600182015481525050905060006118d38233866060015187608001516137c4565b905060008160400151118015611905575080604001518984815181106118fb576118fb6156cd565b6020026020010151115b8061192c57508060000151898481518110611922576119226156cd565b6020026020010151115b15611955578060000151898481518110611948576119486156cd565b6020026020010181815250505b60008460600151826060015161196b91906155dd565b603854633b9aca008c8781518110611985576119856156cd565b602002602001015161199791906155dd565b6119a191906155dd565b6119ab9190615612565b905080836000015111611a635782600001519050604360008c86815181106119d5576119d56156cd565b6020908102919091018101518252810191909152604001600090812081815560010155603d548a51633b9aca00916001600160401b0316908c9087908110611a1f57611a1f6156cd565b6020026020010151611a3191906155dd565b611a3b9190615612565b8260800151611a4a9190615777565b85604001818151611a5b919061578e565b905250611b18565b80604360008d8781518110611a7a57611a7a6156cd565b602002602001015181526020019081526020016000206000016000828254611aa29190615777565b92505081905550611b168b8581518110611abe57611abe6156cd565b6020908102919091010151603d548c51633b9aca00916001600160401b0316908e9089908110611af057611af06156cd565b6020026020010151611b0291906155dd565b611b0c9190615612565b8760800151613c18565b505b8085602001818151611b2a919061578e565b90525089518a9085908110611b4157611b416156cd565b602002602001015185600001818151611b5a919061578e565b905250839250611b6d91508290506157a6565b915050611865565b50603d54633b9aca0090611b92906001600160401b031682615777565b8251611b9e91906155dd565b611ba89190615612565b60416000828254611bb9919061578e565b9091555050604081015160428054600090611bd590849061578e565b90915550506040517f965a177723c641ee49150b583a0b9ad4730bb20d3474e00ae5a65e777c00d67b90611c0a9089906157c1565b60405180910390a1611c288160200151826000015187878787613d5e565b600180559695505050505050565b60455460609060009081816001600160401b03811115611c5857611c58614e42565b604051908082528060200260200182016040528015611c81578160200160208202803683370190505b50905060008060015b848111611d48576000818152604760205260409020546001600160a01b0390811693508816831480611cd55750876001600160a01b0316611cca826133a0565b6001600160a01b0316145b80611d0557506001600160a01b038084166000908152604a60209081526040808320938c168352929052205460ff165b15611d365780848381518110611d1d57611d1d6156cd565b6020908102919091010152611d3360018361578e565b91505b80611d40816157a6565b915050611c8a565b509196919550909350505050565b607e8054610b8790615541565b611d6b614c2f565b60408051600080825260208201909252611d8d9187918791879187919061288e565b90505b949350505050565b6001600160a01b038216331415611dd65760405162461bcd60e51b8152602060048201526002602482015261064760f31b6044820152606401610c2f565b336000818152604a602090815260408083206001600160a01b03871680855290835292819020805460ff191686151590811790915590519081529192917f17307eab39ab6107e8899845ad3d59bd9653f200f220920489ca2b5937696c31910160405180910390a35050565b60335460405163521d4de960e01b81526001600160a01b039091169063521d4de990611e72903390600401614c6c565b602060405180830381865afa158015611e8f573d6000803e3d6000fd5b505050506040513d601f19601f82011682018060405250810190611eb39190615626565b611ecf5760405162461bcd60e51b8152600401610c2f9061565e565b60398190556040518181527fdd63b3dcdbebad734892f7c7a26d0f647fbc7eec973e0775f5229018ac4ab47a906020015b60405180910390a150565b603d54600090600160881b900460ff1615611f385760405162461bcd60e51b8152600401610c2f90615724565b610b7482613e68565b919050565b3382611f52828261345e565b611f6e5760405162461bcd60e51b8152600401610c2f90615592565b611f7a86868686613f6e565b505050505050565b60335460405163521d4de960e01b81526001600160a01b039091169063521d4de990611fb2903390600401614c6c565b602060405180830381865afa158015611fcf573d6000803e3d6000fd5b505050506040513d601f19601f82011682018060405250810190611ff39190615626565b61200f5760405162461bcd60e51b8152600401610c2f9061565e565b603d805460ff60881b198116600160881b9182900460ff1615909102179055565b606061203b82613383565b6120575760405162461bcd60e51b8152600401610c2f90615576565b8160005b8115612081578061206b816157a6565b915061207a9050600a83615612565b915061205b565b6000816001600160401b0381111561209b5761209b614e42565b6040519080825280601f01601f1916602001820160405280156120c5576020820181803683370190505b5090505b8415612130576120da600183615777565b91506120e7600a866157d4565b6120f290603061578e565b60f81b818381518110612107576121076156cd565b60200101906001600160f81b031916908160001a905350612129600a86615612565b94506120c9565b60006046805461213f90615541565b90501161215b576040518060200160405280600081525061217f565b60468160405160200161216f929190615804565b6040516020818303038152906040525b95945050505050565b603d54600160881b900460ff16156121b25760405162461bcd60e51b8152600401610c2f90615724565b6033546040516333b52a9f60e11b81526001600160a01b039091169063676a553e906121e2903390600401614c6c565b602060405180830381865afa1580156121ff573d6000803e3d6000fd5b505050506040513d601f19601f820116820180604052508101906122239190615626565b6122535760405162461bcd60e51b81526020600482015260016024820152603360f81b6044820152606401610c2f565b603c54600160801b90046001600160401b03168111156122d057603c54600090633b9aca0090849061229590600160801b90046001600160401b031685615777565b61229f91906155dd565b6122a99190615612565b90506122b58184615777565b925080604160008282546122c9919061578e565b9091555050505b6122dc83836000613c18565b50505050565b600054610100900460ff166122fd5760005460ff1615612301565b303b155b6123645760405162461bcd60e51b815260206004820152602e60248201527f496e697469616c697a61626c653a20636f6e747261637420697320616c72656160448201526d191e481a5b9a5d1a585b1a5e995960921b6064820152608401610c2f565b600054610100900460ff16158015612386576000805461ffff19166101011790555b856001600160a01b0316846001600160a01b03166361d027b36040518163ffffffff1660e01b8152600401602060405180830381865afa1580156123ce573d6000803e3d6000fd5b505050506040513d601f19601f820116820180604052508101906123f29190615694565b6001600160a01b0316146124185760405162461bcd60e51b8152600401610c2f906156b1565b603380546001600160a01b038089166001600160a01b0319928316179092556034805492881692909116821790556040805163313ce56760e01b8152905163313ce567916004808201926020929091908290030181865afa158015612481573d6000803e3d6000fd5b505050506040513d601f19601f820116820180604052508101906124a591906158a2565b6124b090600a6159a9565b603881905550856001600160a01b031663e9cbd8226040518163ffffffff1660e01b8152600401602060405180830381865afa1580156124f4573d6000803e3d6000fd5b505050506040513d601f19601f820116820180604052508101906125189190615694565b603580546001600160a01b03199081166001600160a01b0393841617909155603680549091169186169190911790556040516125589083906020016159b8565b604051602081830303815290604052607d908051906020019061257c929190614b71565b508160405160200161258e91906159ff565b604051602081830303815290604052607e90805190602001906125b2929190614b71565b50676765c793fa10079d601b1b603f5542603e556125d660c0840160a08501615a29565b6001600160401b03166125ef6040850160208601615a29565b6001600160401b03161115801561262257506126116060840160408501615a29565b6001600160401b0316633b9aca0011155b801561264a5750633b9aca0061263e60c0850160a08601615a29565b6001600160401b031611155b80156126725750633b9aca006126666080850160608601615a29565b6001600160401b031611155b80156126995750633b9aca0061268e60e0850160c08601615a29565b6001600160401b0316105b80156126aa57508261010001356000105b6126c65760405162461bcd60e51b8152600401610c2f906156e3565b82356039556126db6040840160208501615a29565b603c80546001600160401b0319166001600160401b039290921691909117905561270b6060840160408501615a29565b603c80546001600160401b0392909216600160401b02600160401b600160801b03199092169190911790556127466080840160608501615a29565b603c80546001600160401b0392909216600160801b02600160801b600160c01b031990921691909117905561278160a0840160808501615a29565b603c80546001600160401b0392909216600160c01b026001600160c01b039092169190911790556127b860c0840160a08501615a29565b603d80546001600160401b0319166001600160401b03929092169190911790556127e860e0840160c08501615a29565b603d80546001600160401b0392909216600160401b02600160401b600160801b0319909216919091179055612824610100840160e08501615a44565b603d8054911515600160801b0260ff60801b199092169190911790556040805160208101909152610100840135815261286190603b906001614bf5565b50603d805460ff60881b1916600160881b1790558015611f7a576000805461ff0019169055505050505050565b612896614c2f565b603d54600160881b900460ff16156128c05760405162461bcd60e51b8152600401610c2f90615724565b600260015414156128e35760405162461bcd60e51b8152600401610c2f90615740565b6002600155600080808080805b8c51811015612de45760008d828151811061290d5761290d6156cd565b602002602001015190506000600781111561292a5761292a615a61565b81600781111561293c5761293c615a61565b141561297d576129778d8381518110612957576129576156cd565b60200260200101518060200190518101906129729190615694565b613e68565b50612dd1565b600281600781111561299157612991615a61565b14156129f7578c82815181106129a9576129a96156cd565b60200260200101518060200190518101906129c49190615a77565b95509250826129d35760455492505b6129dd8386613fa1565b84886060018181516129ef919061578e565b905250612dd1565b6007816007811115612a0b57612a0b615a61565b1415612ae45760008060008f8581518110612a2857612a286156cd565b6020026020010151806020019051810190612a439190615a9b565b60345460405163d505accf60e01b81526001600160a01b038089166004830152306024830152604482018890526064820187905260ff8616608483015260a4820185905260c48201849052969f50939d50939b509497509550929350169063d505accf9060e401600060405180830381600087803b158015612ac457600080fd5b505af1158015612ad8573d6000803e3d6000fd5b50505050505050612dd1565b86612af457612af1613b77565b96505b6004816007811115612b0857612b08615a61565b1415612b69578c8281518110612b2057612b206156cd565b6020026020010151806020019051810190612b3b9190615a77565b9450925082612b4a5760455492505b612b55838589613c18565b935083886020018181516129ef919061578e565b85612be857603660009054906101000a90046001600160a01b03166001600160a01b03166357de26a46040518163ffffffff1660e01b8152600401602060405180830381865afa158015612bc1573d6000803e3d6000fd5b505050506040513d601f19601f82011682018060405250810190612be591906155ae565b95505b6001816007811115612bfc57612bfc615a61565b1415612c78578c8281518110612c1457612c146156cd565b6020026020010151806020019051810190612c2f91906155ae565b925082612c3c5760455492505b612c47838789613fe7565b80965081955050508488604001818151612c61919061578e565b9052506020880180518591906129ef90839061578e565b6003816007811115612c8c57612c8c615a61565b1415612cec578c8281518110612ca457612ca46156cd565b6020026020010151806020019051810190612cbf9190615a77565b9550925082612cce5760455492505b612cda8386888a61408a565b84886040018181516129ef919061578e565b6005816007811115612d0057612d00615a61565b1415612d62578c8281518110612d1857612d186156cd565b6020026020010151806020019051810190612d339190615a77565b9450925082612d425760455492505b612d4e8385888a614162565b935083886000018181516129ef919061578e565b6006816007811115612d7657612d76615a61565b1415612dd1576000808e8481518110612d9157612d916156cd565b6020026020010151806020019051810190612dac9190615aee565b98509196509250905084612dc05760455494505b612dce858383898c8e6141fc565b50505b5080612ddc816157a6565b9150506128f0565b508551602087015110612edb5785516020870151600091612e0491615777565b90508660600151876040015110612e3b57612e3687606001518860400151612e2c9190615777565b828d8d8d8d613d5e565b612ed5565b8015612ea857603554604051630d43af8160e21b81526001600160a01b039091169063350ebe0490612e759084908f903390600401615b2c565b600060405180830381600087803b158015612e8f57600080fd5b505af1158015612ea3573d6000803e3d6000fd5b505050505b612ed5333089604001518a60600151612ec19190615777565b6034546001600160a01b03169291906142d9565b50613067565b60208601518651600091612eee91615777565b6035546040516340c10f1960e01b81529192506001600160a01b0316906340c10f1990612f21908d908590600401615b4b565b600060405180830381600087803b158015612f3b57600080fd5b505af1158015612f4f573d6000803e3d6000fd5b50505050866060015187604001511115612f9357612f8e8a88606001518960400151612f7b9190615777565b6034546001600160a01b03169190614344565b613065565b600087604001518860600151612fa99190615777565b905080156130635788511561304b57896001600160a01b031663a5d4096b603560009054906101000a90046001600160a01b0316603460009054906101000a90046001600160a01b03163386868f6040518763ffffffff1660e01b815260040161301896959493929190615b64565b600060405180830381600087803b15801561303257600080fd5b505af1158015613046573d6000803e3d6000fd5b505050505b603454613063906001600160a01b03163330846142d9565b505b505b505060018055509198975050505050505050565b603a8181548110610efc57600080fd5b6001600160a01b039182166000908152604a6020908152604080832093909416825291909152205460ff1690565b6033546001600160a01b031633146130e35760405162461bcd60e51b8152600401610c2f90615ba6565b603380546001600160a01b0319166001600160a01b0383811691909117909155603654604051630787a21360e51b815291169063f0f442609061312a908490600401614c6c565b600060405180830381600087803b15801561314457600080fd5b505af1158015610d0f573d6000803e3d6000fd5b603354604051631c86b03760e31b81526001600160a01b039091169063e43581b890613188903390600401614c6c565b602060405180830381865afa1580156131a5573d6000803e3d6000fd5b505050506040513d601f19601f820116820180604052508101906131c99190615626565b6131e55760405162461bcd60e51b8152600401610c2f90615643565b603d805460ff60801b198116600160801b9182900460ff1615918202179091556040518181527f9c4ac7d44b0a53ec3cc5ee648f44fa9e0a29b95945172b5f74b52462b9c1d85b90602001611f00565b61323d614b42565b60408051600080825260208201909252611d8d91879187918791879190611749565b60335460009081906001600160a01b0316331461328e5760405162461bcd60e51b8152600401610c2f90615ba6565b613296613b77565b5060415491506042549050808210613325576132b28183615777565b6035546033546040516340c10f1960e01b8152929450600093506001600160a01b03918216926340c10f19926132ee9216908690600401615b4b565b600060405180830381600087803b15801561330857600080fd5b505af115801561331c573d6000803e3d6000fd5b50505050613336565b61332f8282615777565b9050600091505b6000604181905560425560408051838152602081018390527ffeb12225c131aab793a00c5239afb778932d170fa28ce6e9d23703e4bd892121910160405180910390a19091565b3b151590565b6000908152604760205260409020546001600160a01b0316151590565b6000908152604960205260409020546001600160a01b031690565b6000818152604760205260409020546001600160a01b031680611f415760405162461bcd60e51b8152600401610c2f90615576565b600081815260496020526040902080546001600160a01b0319166001600160a01b0384169081179091558190613425826133bb565b6001600160a01b03167f8c5be1e5ebec7d5bd14f71427d1e84f3dd0314c0f7b2291e5b200ac8c7c3b92560405160405180910390a45050565b60008061346a836133bb565b9050806001600160a01b0316846001600160a01b031614806134a55750836001600160a01b031661349a846133a0565b6001600160a01b0316145b80611d9057506001600160a01b038082166000908152604a602090815260408083209388168352929052205460ff16949350505050565b826001600160a01b03166134ef826133bb565b6001600160a01b03161461352a5760405162461bcd60e51b8152602060048201526002602482015261033360f41b6044820152606401610c2f565b6001600160a01b0382166135655760405162461bcd60e51b8152602060048201526002602482015261333160f01b6044820152606401610c2f565b603d54600160801b900460ff16158061359657506001600160a01b03821660009081526044602052604090205460ff165b6135b25760405162461bcd60e51b8152600401610c2f90615bc2565b6135bd6000826133f0565b6001600160a01b038084166000818152604860209081526040808320805460001901905593861680835284832080546001019055858352604790915283822080546001600160a01b03191682179055925184939291600080516020615d0283398151915291a4505050565b600080603e54426136399190615777565b603c54909150600160c01b90046001600160401b031681158061365a575080155b1561366957603f549250505090565b6000613676600184615777565b9050600060028411613689576000613694565b613694600285615777565b90506000676765c793fa10079d601b1b676765c793fa10079d601a1b6136ba86806155dd565b6136c4919061578e565b6136ce9190615612565b90506000676765c793fa10079d601b1b676765c793fa10079d601a1b6136f487856155dd565b6136fe919061578e565b6137089190615612565b90506000600283613719878a6155dd565b61372391906155dd565b61372d9190615612565b905060006006838661373f898c6155dd565b61374991906155dd565b61375391906155dd565b61375d9190615612565b9050676765c793fa10079d601b1b81836137778b8b6155dd565b61378c90676765c793fa10079d601b1b61578e565b613796919061578e565b6137a0919061578e565b603f546137ad91906155dd565b6137b79190615612565b9850505050505050505090565b6137cc614b42565b60008060006137dc888787614363565b925092509250633b9aca00831061381a5760405162461bcd60e51b81526020600482015260026024820152610d0d60f21b6044820152606401610c2f565b6000633b9aca0061382b8582615777565b6138348a6143ec565b61383e91906155dd565b6138489190615612565b603d54909150600160401b90046001600160401b03168110156138785761387381633b9aca00615777565b613899565b603d5461389990600160401b90046001600160401b0316633b9aca00615777565b603d549091506001600160401b03166000806138ba6002633b9aca006159a9565b603c546138d091906001600160401b03166155dd565b836138db868a6155dd565b6138e591906155dd565b10613a8957603c546001600160401b03166139056002633b9aca006159a9565b61390f91906155dd565b603c54859061392e90600160401b90046001600160401b0316866155dd565b61393891906155dd565b6139429190615777565b603c548590633b9aca0090613960906001600160401b0316896155dd565b603c5461397e908b90600160401b90046001600160401b03166155dd565b6139889190615777565b61399291906155dd565b61399c91906155dd565b6139a69190615612565b91507f0000000000000000000000000000000000000000000000000000000000000000633b9aca006139d885856155dd565b6139e29190615612565b6139ec919061578e565b8611613a8457613a07676765c793fa10079d601b1b846155dd565b633b9aca008a8e60200151613a1c91906155dd565b613a2691906155dd565b613a309190615612565b613a3b90600161578e565b915082633b9aca00613a6d7f000000000000000000000000000000000000000000000000000000000000000089615777565b613a7791906155dd565b613a819190615612565b90505b613b25565b603854613a9a90633b9aca006155dd565b8c518b90613aa99087906155dd565b613ab391906155dd565b613abd9190615612565b613ac890600161578e565b91507f0000000000000000000000000000000000000000000000000000000000000000851115613b2257633b9aca0084613a6d7f000000000000000000000000000000000000000000000000000000000000000088615777565b50805b818852613b32848b6155dd565b603854613b43633b9aca00856155dd565b613b4d91906155dd565b613b579190615612565b602089015260408801525050606085015250608083015250949350505050565b6000613b81613628565b90506000676765c793fa10079d601b1b603f5483613b9f9190615777565b604054613bac91906155dd565b613bb69190615612565b90508060416000828254613bca919061578e565b9091555050603f82905542603e8190556040805184815260208101929092527fd1fa8ba00a3bf20274346919dce0de62d2a140af2c71fe7e29fa6472eea3bb9d910160405180910390a15090565b600081613c2a57613c27613b77565b91505b60008481526043602052604081206001015490676765c793fa10079d601b1b613c5385846155dd565b613c5d9190615612565b9050808510613c6e57935080613c91565b83613c84676765c793fa10079d601b1b876155dd565b613c8e9190615612565b90505b613c9b8183615777565b91508060406000828254613caf9190615777565b9091555050811580613cfd5750613cf1676765c793fa10079d601b1b7f00000000000000000000000000000000000000000000000000000000000000006155dd565b613cfb85846155dd565b115b613d195760405162461bcd60e51b8152600401610c2f90615bde565b60008681526043602052604080822060010184905551600080516020615cc283398151915291613d4c9189918591615bfa565b60405180910390a15092949350505050565b8515613d7b57603454613d7b906001600160a01b03168488614344565b8415611f7a57805115613dfa5760345460355460405163a5d4096b60e01b81526001600160a01b038086169363a5d4096b93613dc79391831692169089908b908d908990600401615b64565b600060405180830381600087803b158015613de157600080fd5b505af1158015613df5573d6000803e3d6000fd5b505050505b603554604051630d43af8160e21b81526001600160a01b039091169063350ebe0490613e2e90889088903390600401615b2c565b600060405180830381600087803b158015613e4857600080fd5b505af1158015613e5c573d6000803e3d6000fd5b50505050505050505050565b603d54600090600160801b900460ff161580613eb657506001600160a01b03821660009081526044602052604090205460ff168015613eb657503360009081526044602052604090205460ff165b613ed25760405162461bcd60e51b8152600401610c2f90615bc2565b5060458054600190810182556001600160a01b038316600081815260486020908152604080832080549095019094559354808252604790945282812080546001600160a01b031916831790559151839290600080516020615d02833981519152908290a4613f52600083836040518060200160405280600081525061461b565b611f415760405162461bcd60e51b8152600401610c2f90615c13565b613f798484846134dc565b613f858484848461461b565b6122dc5760405162461bcd60e51b8152600401610c2f90615c13565b60008281526043602052604081208054839290613fbf90849061578e565b9091555050604051600080516020615ce2833981519152906113e29084908490600190615bfa565b6000803385613ff6828261345e565b6140125760405162461bcd60e51b8152600401610c2f90615592565b600087815260436020908152604080832081518083019092528054825260010154918101919091529080614047838a8a614363565b5091509150633b9aca00821161406f5760405162461bcd60e51b8152600401610c2f90615c2f565b6140788a614716565b91519199919850909650505050505050565b3384614096828261345e565b6140b25760405162461bcd60e51b8152600401610c2f90615592565b600086815260436020526040812080548792906140d0908490615777565b909155505060008681526043602090815260408083208151808301909252805482526001015491810191909152614108908686614363565b50509050633b9aca00811161412f5760405162461bcd60e51b8152600401610c2f90615c2f565b600080516020615ce28339815191528787600060405161415193929190615bfa565b60405180910390a150505050505050565b60003385614170828261345e565b61418c5760405162461bcd60e51b8152600401610c2f90615592565b61419887878787614795565b603c54909650600090633b9aca00906141c2908990600160801b90046001600160401b03166155dd565b6141cc9190615612565b905080604160008282546141e0919061578e565b909155506141f090508188615777565b98975050505050505050565b3386614208828261345e565b6142245760405162461bcd60e51b8152600401610c2f90615592565b61423088868686614795565b94506001600160a01b0387163014156142545761424e868685613c18565b506142cf565b603c5460405163d645c39360e01b81526004810188905260248101879052600160801b9091046001600160401b031660448201526001600160a01b0388169063d645c39390606401600060405180830381600087803b1580156142b657600080fd5b505af11580156142ca573d6000803e3d6000fd5b505050505b5050505050505050565b6040516001600160a01b03808516602483015283166044820152606481018290526122dc9085906323b872dd60e01b906084015b60408051601f198184030181529190526020810180516001600160e01b03166001600160e01b031990931692909217909152614975565b610cd78363a9059cbb60e01b848460405160240161430d929190615b4b565b6000806000676765c793fa10079d601b1b84876020015161438491906155dd565b61438e9190615612565b91506038548587600001516143a391906155dd565b6143ad9190615612565b9050816143be5760001992506143e3565b603c5482906143d6906001600160401b0316836155dd565b6143e09190615612565b92505b93509350939050565b6037546000906001600160a01b031661442557603b600081548110614413576144136156cd565b90600052602060002001549050919050565b603754604051635dfba04560e11b81526000916001600160a01b03169063bbf7408a90614456908690600401614c6c565b602060405180830381865afa158015614473573d6000803e3d6000fd5b505050506040513d601f19601f8201168201806040525081019061449791906155ae565b9050603a6001815481106144ad576144ad6156cd565b906000526020600020015481106144e557603b6001815481106144d2576144d26156cd565b9060005260206000200154915050919050565b603a6000815481106144f9576144f96156cd565b9060005260206000200154811161451e57603b6000815481106144d2576144d26156cd565b603a600081548110614532576145326156cd565b9060005260206000200154603a600181548110614551576145516156cd565b90600052602060002001546145669190615777565b603a60008154811061457a5761457a6156cd565b9060005260206000200154826145909190615777565b603b6000815481106145a4576145a46156cd565b9060005260206000200154603b6001815481106145c3576145c36156cd565b90600052602060002001546145d89190615777565b6145e291906155dd565b6145ec9190615612565b603b600081548110614600576146006156cd565b9060005260206000200154610dc1919061578e565b50919050565b60006001600160a01b0384163b1561470e57604051630a85bd0160e11b81526001600160a01b0385169063150b7a029061465f903390899088908890600401615c4b565b6020604051808303816000875af192505050801561469a575060408051601f3d908101601f1916820190925261469791810190615c88565b60015b6146f4573d8080156146c8576040519150601f19603f3d011682016040523d82523d6000602084013e6146cd565b606091505b5080516146ec5760405162461bcd60e51b8152600401610c2f90615bde565b805181602001fd5b6001600160e01b031916630a85bd0160e11b149050611d90565b506001611d90565b6000614721826133bb565b905061472e6000836133f0565b6001600160a01b038116600081815260486020908152604080832080546000190190558583526047825280832080546001600160a01b0319169055604390915280822082815560010182905551849290600080516020615d02833981519152908390a45050565b600080826147ae676765c793fa10079d601b1b876155dd565b6147b89190615612565b60008781526043602052604090206001015490915061482d57614806676765c793fa10079d601b1b7f00000000000000000000000000000000000000000000000000000000000000006155dd565b61481084836155dd565b1161482d5760405162461bcd60e51b8152600401610c2f90615bde565b6000868152604360205260408120600101805483929061484e90849061578e565b925050819055508060406000828254614867919061578e565b909155505060395461488590676765c793fa10079d601b1b906155dd565b8360405461489391906155dd565b11156148c65760405162461bcd60e51b8152602060048201526002602482015261343560f01b6044820152606401610c2f565b600086815260436020908152604080832081518083019092528054825260010154918101919091526148f9908686614363565b50509050633b9aca0081116149205760405162461bcd60e51b8152600401610c2f90615c2f565b600080516020615cc28339815191528783600160405161494293929190615bfa565b60405180910390a1676765c793fa10079d601b1b61496085846155dd565b61496a9190615612565b979650505050505050565b60006149ca826040518060400160405280602081526020017f5361666545524332303a206c6f772d6c6576656c2063616c6c206661696c6564815250856001600160a01b0316614a479092919063ffffffff16565b805190915015610cd757808060200190518101906149e89190615626565b610cd75760405162461bcd60e51b815260206004820152602a60248201527f5361666545524332303a204552433230206f7065726174696f6e20646964206e6044820152691bdd081cdd58d8d9595960b21b6064820152608401610c2f565b6060611d90848460008585843b614aa05760405162461bcd60e51b815260206004820152601d60248201527f416464726573733a2063616c6c20746f206e6f6e2d636f6e74726163740000006044820152606401610c2f565b600080866001600160a01b03168587604051614abc9190615ca5565b60006040518083038185875af1925050503d8060008114614af9576040519150601f19603f3d011682016040523d82523d6000602084013e614afe565b606091505b509150915061496a82828660608315614b18575081610dc1565b825115614b285782518084602001fd5b8160405162461bcd60e51b8152600401610c2f9190614d0e565b6040518060a0016040528060008152602001600081526020016000815260200160008152602001600081525090565b828054614b7d90615541565b90600052602060002090601f016020900481019282614b9f5760008555614be5565b82601f10614bb857805160ff1916838001178555614be5565b82800160010185558215614be5579182015b82811115614be5578251825591602001919060010190614bca565b50614bf1929150614c57565b5090565b828054828255906000526020600020908101928215614be55791602002820182811115614be5578251825591602001919060010190614bca565b6040518060800160405280600081526020016000815260200160008152602001600081525090565b5b80821115614bf15760008155600101614c58565b6001600160a01b0391909116815260200190565b6001600160e01b031981168114614c9657600080fd5b50565b600060208284031215614cab57600080fd5b8135610dc181614c80565b60005b83811015614cd1578181015183820152602001614cb9565b838111156122dc5750506000910152565b60008151808452614cfa816020860160208601614cb6565b601f01601f19169290920160200192915050565b602081526000610dc16020830184614ce2565b600060208284031215614d3357600080fd5b5035919050565b6001600160a01b0381168114614c9657600080fd5b60008060408385031215614d6257600080fd5b8235614d6d81614d3a565b946020939093013593505050565b600080600060608486031215614d9057600080fd5b8335614d9b81614d3a565b92506020840135614dab81614d3a565b929592945050506040919091013590565b60008060408385031215614dcf57600080fd5b823591506020830135614de181614d3a565b809150509250929050565b60a08101610b74828480518252602081015160208301526040810151604083015260608101516060830152608081015160808301525050565b600060208284031215614e3757600080fd5b8135610dc181614d3a565b634e487b7160e01b600052604160045260246000fd5b604051601f8201601f191681016001600160401b0381118282101715614e8057614e80614e42565b604052919050565b600082601f830112614e9957600080fd5b81356001600160401b03811115614eb257614eb2614e42565b614ec5601f8201601f1916602001614e58565b818152846020838601011115614eda57600080fd5b816020850160208301376000918101602001919091529392505050565b600060208284031215614f0957600080fd5b81356001600160401b03811115614f1f57600080fd5b611d9084828501614e88565b80356001600160401b0381168114611f4157600080fd5b60008060408385031215614f5557600080fd5b614d6d83614f2b565b60006001600160401b03821115614f7757614f77614e42565b5060051b60200190565b600082601f830112614f9257600080fd5b81356020614fa7614fa283614f5e565b614e58565b82815260059290921b84018101918181019086841115614fc657600080fd5b8286015b84811015614fe15780358352918301918301614fca565b509695505050505050565b60008060006060848603121561500157600080fd5b833561500c81614d3a565b925060208401356001600160401b038082111561502857600080fd5b61503487838801614f81565b9350604086013591508082111561504a57600080fd5b5061505786828701614f81565b9150509250925092565b60008060008060008060c0878903121561507a57600080fd5b86356001600160401b038082111561509157600080fd5b61509d8a838b01614f81565b975060208901359150808211156150b357600080fd5b6150bf8a838b01614f81565b9650604089013591506150d182614d3a565b9094506060880135906150e382614d3a565b9093506080880135906150f582614d3a565b90925060a0880135908082111561510b57600080fd5b5061511889828a01614e88565b9150509295509295509295565b600081518084526020808501945080840160005b8381101561515557815187529582019590820190600101615139565b509495945050505050565b6040815260006151736040830185615125565b90508260208301529392505050565b600082601f83011261519357600080fd5b813560206151a3614fa283614f5e565b82815260059290921b840181019181810190868411156151c257600080fd5b8286015b84811015614fe1578035600881106151de5760008081fd5b83529183019183016151c6565b600082601f8301126151fc57600080fd5b8135602061520c614fa283614f5e565b82815260059290921b8401810191818101908684111561522b57600080fd5b8286015b84811015614fe15780356001600160401b0381111561524e5760008081fd5b61525c8986838b0101614e88565b84525091830191830161522f565b6000806000806080858703121561528057600080fd5b84356001600160401b038082111561529757600080fd5b6152a388838901615182565b955060208701359150808211156152b957600080fd5b506152c6878288016151eb565b93505060408501356152d781614d3a565b915060608501356152e781614d3a565b939692955090935050565b8015158114614c9657600080fd5b6000806040838503121561531357600080fd5b823561531e81614d3a565b91506020830135614de1816152f2565b6000806000806080858703121561534457600080fd5b843561534f81614d3a565b9350602085013561535f81614d3a565b92506040850135915060608501356001600160401b0381111561538157600080fd5b61538d87828801614e88565b91505092959194509250565b6000806000606084860312156153ae57600080fd5b505081359360208301359350604090920135919050565b60008060008060008587036101a08112156153df57600080fd5b86356153ea81614d3a565b955060208701356153fa81614d3a565b9450604087013561540a81614d3a565b9350610120605f198201121561541f57600080fd5b506060860191506101808601356001600160401b0381111561544057600080fd5b61544c88828901614e88565b9150509295509295909350565b60008060008060008060c0878903121561547257600080fd5b86356001600160401b038082111561548957600080fd5b6154958a838b01615182565b975060208901359150808211156154ab57600080fd5b6150bf8a838b016151eb565b600080604083850312156154ca57600080fd5b82356154d581614d3a565b91506020830135614de181614d3a565b600080600080608085870312156154fb57600080fd5b84356001600160401b038082111561551257600080fd5b61551e88838901614f81565b9550602087013591508082111561553457600080fd5b506152c687828801614f81565b600181811c9082168061555557607f821691505b6020821081141561461557634e487b7160e01b600052602260045260246000fd5b602080825260029082015261191b60f11b604082015260600190565b602080825260029082015261189b60f11b604082015260600190565b6000602082840312156155c057600080fd5b5051919050565b634e487b7160e01b600052601160045260246000fd5b60008160001904831182151516156155f7576155f76155c7565b500290565b634e487b7160e01b600052601260045260246000fd5b600082615621576156216155fc565b500490565b60006020828403121561563857600080fd5b8151610dc1816152f2565b6020808252600190820152603160f81b604082015260600190565b6020808252600190820152601960f91b604082015260600190565b6020808252600190820152603960f81b604082015260600190565b6000602082840312156156a657600080fd5b8151610dc181614d3a565b602080825260029082015261333360f01b604082015260600190565b634e487b7160e01b600052603260045260246000fd5b602080825260029082015261313560f01b604082015260600190565b6040815260006157126040830185615125565b828103602084015261217f8185615125565b6020808252600290820152611a1960f11b604082015260600190565b6020808252601f908201527f5265656e7472616e637947756172643a207265656e7472616e742063616c6c00604082015260600190565b600082821015615789576157896155c7565b500390565b600082198211156157a1576157a16155c7565b500190565b60006000198214156157ba576157ba6155c7565b5060010190565b602081526000610dc16020830184615125565b6000826157e3576157e36155fc565b500690565b600081516157fa818560208601614cb6565b9290920192915050565b600080845481600182811c91508083168061582057607f831692505b602080841082141561584057634e487b7160e01b86526022600452602486fd5b818015615854576001811461586557615892565b60ff19861689528489019650615892565b60008b81526020902060005b8681101561588a5781548b820152908501908301615871565b505084890196505b50505050505061217f81856157e8565b6000602082840312156158b457600080fd5b815160ff81168114610dc157600080fd5b600181815b808511156159005781600019048211156158e6576158e66155c7565b808516156158f357918102915b93841c93908002906158ca565b509250929050565b60008261591757506001610b74565b8161592457506000610b74565b816001811461593a576002811461594457615960565b6001915050610b74565b60ff841115615955576159556155c7565b50506001821b610b74565b5060208310610133831016604e8410600b8410161715615983575081810a610b74565b61598d83836158c5565b80600019048211156159a1576159a16155c7565b029392505050565b6000610dc160ff841683615908565b6e020b733b63290283937ba37b1b7b61608d1b8152600082516159e281600f850160208701614cb6565b650815985d5b1d60d21b600f939091019283015250601501919050565b60008251615a11818460208701614cb6565b650b5d985d5b1d60d21b920191825250600601919050565b600060208284031215615a3b57600080fd5b610dc182614f2b565b600060208284031215615a5657600080fd5b8135610dc1816152f2565b634e487b7160e01b600052602160045260246000fd5b60008060408385031215615a8a57600080fd5b505080516020909101519092909150565b60008060008060008060c08789031215615ab457600080fd5b8651615abf81614d3a565b6020880151604089015160608a015160808b015160a0909b0151939c929b509099909850965090945092505050565b60008060008060808587031215615b0457600080fd5b845193506020850151615b1681614d3a565b6040860151606090960151949790965092505050565b9283526001600160a01b03918216602084015216604082015260600190565b6001600160a01b03929092168252602082015260400190565b6001600160a01b038781168252868116602083015285166040820152606081018490526080810183905260c060a082018190526000906141f090830184614ce2565b6020808252600290820152610c4d60f21b604082015260600190565b602080825260029082015261032360f41b604082015260600190565b6020808252600290820152610c8d60f21b604082015260600190565b928352602083019190915260ff16604082015260600190565b602080825260029082015261323960f01b604082015260600190565b602080825260029082015261323160f01b604082015260600190565b6001600160a01b0385811682528416602082015260408101839052608060608201819052600090615c7e90830184614ce2565b9695505050505050565b600060208284031215615c9a57600080fd5b8151610dc181614c80565b60008251615cb7818460208701614cb6565b919091019291505056fe70cf49afe7355562d5b022e594790f22b71ad8cc7eec902fa5feac7c67f71091722cb71fa87c947148cefc06dd890af5802a6a00207c5ddecf1191bf71ce3cd4ddf252ad1be2c89b69c2b068fc378daa952ba7f163c4a11628f55a4df523b3efa26469706673582212207e878a63bd699526fa6ab479138daac8b16ff971eab9c41f9718a0e8d740a53e64736f6c634300080c0033",
  "linkReferences": {},
  "deployedLinkReferences": {}
}