{
  "_format": "hh-sol-artifact-1",
  "contractName": "VaultManager",
  "sourceName": "contracts/vaultManager/VaultManager.sol",
  "abi": [
    {
      "inputs": [
        {
          "internalType": "uint256",
          "name": "dust_",
          "type": "uint256"
        },
        {
          "internalType": "uint256",
          "name": "dustCollateral_",
          "type": "uint256"
        }
      ],
      "stateMutability": "nonpayable",
      "type": "constructor"
    },
    {
      "anonymous": false,
      "inputs": [
        {
          "indexed": false,
          "internalType": "uint256",
          "name": "surplusEndValue",
          "type": "uint256"
        },
        {
          "indexed": false,
          "internalType": "uint256",
          "name": "badDebtEndValue",
          "type": "uint256"
        }
      ],
      "name": "AccruedToTreasury",
      "type": "event"
    },
    {
      "anonymous": false,
      "inputs": [
        {
          "indexed": true,
          "internalType": "address",
          "name": "owner",
          "type": "address"
        },
        {
          "indexed": true,
          "internalType": "address",
          "name": "approved",
          "type": "address"
        },
        {
          "indexed": true,
          "internalType": "uint256",
          "name": "tokenId",
          "type": "uint256"
        }
      ],
      "name": "Approval",
      "type": "event"
    },
    {
      "anonymous": false,
      "inputs": [
        {
          "indexed": true,
          "internalType": "address",
          "name": "owner",
          "type": "address"
        },
        {
          "indexed": true,
          "internalType": "address",
          "name": "operator",
          "type": "address"
        },
        {
          "indexed": false,
          "internalType": "bool",
          "name": "approved",
          "type": "bool"
        }
      ],
      "name": "ApprovalForAll",
      "type": "event"
    },
    {
      "anonymous": false,
      "inputs": [
        {
          "indexed": false,
          "internalType": "uint256",
          "name": "vaultID",
          "type": "uint256"
        },
        {
          "indexed": false,
          "internalType": "uint256",
          "name": "collateralAmount",
          "type": "uint256"
        },
        {
          "indexed": false,
          "internalType": "uint8",
          "name": "isIncrease",
          "type": "uint8"
        }
      ],
      "name": "CollateralAmountUpdated",
      "type": "event"
    },
    {
      "anonymous": false,
      "inputs": [
        {
          "indexed": false,
          "internalType": "uint256",
          "name": "debtCeiling",
          "type": "uint256"
        }
      ],
      "name": "DebtCeilingUpdated",
      "type": "event"
    },
    {
      "anonymous": false,
      "inputs": [
        {
          "indexed": false,
          "internalType": "uint64",
          "name": "param",
          "type": "uint64"
        },
        {
          "indexed": false,
          "internalType": "bytes32",
          "name": "what",
          "type": "bytes32"
        }
      ],
      "name": "FiledUint64",
      "type": "event"
    },
    {
      "anonymous": false,
      "inputs": [
        {
          "indexed": false,
          "internalType": "uint256",
          "name": "value",
          "type": "uint256"
        },
        {
          "indexed": false,
          "internalType": "uint256",
          "name": "timestamp",
          "type": "uint256"
        }
      ],
      "name": "InterestRateAccumulatorUpdated",
      "type": "event"
    },
    {
      "anonymous": false,
      "inputs": [
        {
          "indexed": false,
          "internalType": "uint256",
          "name": "vaultID",
          "type": "uint256"
        },
        {
          "indexed": false,
          "internalType": "uint256",
          "name": "internalAmount",
          "type": "uint256"
        },
        {
          "indexed": false,
          "internalType": "uint8",
          "name": "isIncrease",
          "type": "uint8"
        }
      ],
      "name": "InternalDebtUpdated",
      "type": "event"
    },
    {
      "anonymous": false,
      "inputs": [
        {
          "indexed": true,
          "internalType": "address",
          "name": "_veBoostProxy",
          "type": "address"
        },
        {
          "indexed": false,
          "internalType": "uint256[]",
          "name": "xBoost",
          "type": "uint256[]"
        },
        {
          "indexed": false,
          "internalType": "uint256[]",
          "name": "yBoost",
          "type": "uint256[]"
        }
      ],
      "name": "LiquidationBoostParametersUpdated",
      "type": "event"
    },
    {
      "anonymous": false,
      "inputs": [
        {
          "indexed": true,
          "internalType": "address",
          "name": "_oracle",
          "type": "address"
        }
      ],
      "name": "OracleUpdated",
      "type": "event"
    },
    {
      "anonymous": false,
      "inputs": [
        {
          "indexed": false,
          "internalType": "bool",
          "name": "",
          "type": "bool"
        }
      ],
      "name": "ToggledWhitelisting",
      "type": "event"
    },
    {
      "anonymous": false,
      "inputs": [
        {
          "indexed": true,
          "internalType": "address",
          "name": "from",
          "type": "address"
        },
        {
          "indexed": true,
          "internalType": "address",
          "name": "to",
          "type": "address"
        },
        {
          "indexed": true,
          "internalType": "uint256",
          "name": "tokenId",
          "type": "uint256"
        }
      ],
      "name": "Transfer",
      "type": "event"
    },
    {
      "inputs": [],
      "name": "BASE_INTEREST",
      "outputs": [
        {
          "internalType": "uint256",
          "name": "",
          "type": "uint256"
        }
      ],
      "stateMutability": "view",
      "type": "function"
    },
    {
      "inputs": [],
      "name": "BASE_PARAMS",
      "outputs": [
        {
          "internalType": "uint256",
          "name": "",
          "type": "uint256"
        }
      ],
      "stateMutability": "view",
      "type": "function"
    },
    {
      "inputs": [],
      "name": "HALF_BASE_INTEREST",
      "outputs": [
        {
          "internalType": "uint256",
          "name": "",
          "type": "uint256"
        }
      ],
      "stateMutability": "view",
      "type": "function"
    },
    {
      "inputs": [],
      "name": "accrueInterestToTreasury",
      "outputs": [
        {
          "internalType": "uint256",
          "name": "surplusValue",
          "type": "uint256"
        },
        {
          "internalType": "uint256",
          "name": "badDebtValue",
          "type": "uint256"
        }
      ],
      "stateMutability": "nonpayable",
      "type": "function"
    },
    {
      "inputs": [
        {
          "internalType": "enum ActionType[]",
          "name": "actions",
          "type": "uint8[]"
        },
        {
          "internalType": "bytes[]",
          "name": "datas",
          "type": "bytes[]"
        },
        {
          "internalType": "address",
          "name": "from",
          "type": "address"
        },
        {
          "internalType": "address",
          "name": "to",
          "type": "address"
        }
      ],
      "name": "angle",
      "outputs": [
        {
          "components": [
            {
              "internalType": "uint256",
              "name": "stablecoinAmountToGive",
              "type": "uint256"
            },
            {
              "internalType": "uint256",
              "name": "stablecoinAmountToReceive",
              "type": "uint256"
            },
            {
              "internalType": "uint256",
              "name": "collateralAmountToGive",
              "type": "uint256"
            },
            {
              "internalType": "uint256",
              "name": "collateralAmountToReceive",
              "type": "uint256"
            }
          ],
          "internalType": "struct PaymentData",
          "name": "",
          "type": "tuple"
        }
      ],
      "stateMutability": "payable",
      "type": "function"
    },
    {
      "inputs": [
        {
          "internalType": "enum ActionType[]",
          "name": "actions",
          "type": "uint8[]"
        },
        {
          "internalType": "bytes[]",
          "name": "datas",
          "type": "bytes[]"
        },
        {
          "internalType": "address",
          "name": "from",
          "type": "address"
        },
        {
          "internalType": "address",
          "name": "to",
          "type": "address"
        },
        {
          "internalType": "address",
          "name": "who",
          "type": "address"
        },
        {
          "internalType": "bytes",
          "name": "repayData",
          "type": "bytes"
        }
      ],
      "name": "angle",
      "outputs": [
        {
          "components": [
            {
              "internalType": "uint256",
              "name": "stablecoinAmountToGive",
              "type": "uint256"
            },
            {
              "internalType": "uint256",
              "name": "stablecoinAmountToReceive",
              "type": "uint256"
            },
            {
              "internalType": "uint256",
              "name": "collateralAmountToGive",
              "type": "uint256"
            },
            {
              "internalType": "uint256",
              "name": "collateralAmountToReceive",
              "type": "uint256"
            }
          ],
          "internalType": "struct PaymentData",
          "name": "paymentData",
          "type": "tuple"
        }
      ],
      "stateMutability": "payable",
      "type": "function"
    },
    {
      "inputs": [
        {
          "internalType": "address",
          "name": "to",
          "type": "address"
        },
        {
          "internalType": "uint256",
          "name": "vaultID",
          "type": "uint256"
        }
      ],
      "name": "approve",
      "outputs": [],
      "stateMutability": "nonpayable",
      "type": "function"
    },
    {
      "inputs": [],
      "name": "badDebt",
      "outputs": [
        {
          "internalType": "uint256",
          "name": "",
          "type": "uint256"
        }
      ],
      "stateMutability": "view",
      "type": "function"
    },
    {
      "inputs": [
        {
          "internalType": "address",
          "name": "owner",
          "type": "address"
        }
      ],
      "name": "balanceOf",
      "outputs": [
        {
          "internalType": "uint256",
          "name": "",
          "type": "uint256"
        }
      ],
      "stateMutability": "view",
      "type": "function"
    },
    {
      "inputs": [],
      "name": "borrowFee",
      "outputs": [
        {
          "internalType": "uint64",
          "name": "",
          "type": "uint64"
        }
      ],
      "stateMutability": "view",
      "type": "function"
    },
    {
      "inputs": [
        {
          "internalType": "uint256",
          "name": "vaultID",
          "type": "uint256"
        },
        {
          "internalType": "address",
          "name": "liquidator",
          "type": "address"
        }
      ],
      "name": "checkLiquidation",
      "outputs": [
        {
          "components": [
            {
              "internalType": "uint256",
              "name": "maxStablecoinAmountToRepay",
              "type": "uint256"
            },
            {
              "internalType": "uint256",
              "name": "maxCollateralAmountGiven",
              "type": "uint256"
            },
            {
              "internalType": "uint256",
              "name": "thresholdRepayAmount",
              "type": "uint256"
            },
            {
              "internalType": "uint256",
              "name": "discount",
              "type": "uint256"
            },
            {
              "internalType": "uint256",
              "name": "currentDebt",
              "type": "uint256"
            }
          ],
          "internalType": "struct LiquidationOpportunity",
          "name": "liqOpp",
          "type": "tuple"
        }
      ],
      "stateMutability": "view",
      "type": "function"
    },
    {
      "inputs": [],
      "name": "collateral",
      "outputs": [
        {
          "internalType": "contract IERC20",
          "name": "",
          "type": "address"
        }
      ],
      "stateMutability": "view",
      "type": "function"
    },
    {
      "inputs": [],
      "name": "collateralFactor",
      "outputs": [
        {
          "internalType": "uint64",
          "name": "",
          "type": "uint64"
        }
      ],
      "stateMutability": "view",
      "type": "function"
    },
    {
      "inputs": [
        {
          "internalType": "address",
          "name": "toVault",
          "type": "address"
        }
      ],
      "name": "createVault",
      "outputs": [
        {
          "internalType": "uint256",
          "name": "",
          "type": "uint256"
        }
      ],
      "stateMutability": "nonpayable",
      "type": "function"
    },
    {
      "inputs": [],
      "name": "debtCeiling",
      "outputs": [
        {
          "internalType": "uint256",
          "name": "",
          "type": "uint256"
        }
      ],
      "stateMutability": "view",
      "type": "function"
    },
    {
      "inputs": [],
      "name": "dust",
      "outputs": [
        {
          "internalType": "uint256",
          "name": "",
          "type": "uint256"
        }
      ],
      "stateMutability": "view",
      "type": "function"
    },
    {
      "inputs": [
        {
          "internalType": "uint256",
          "name": "vaultID",
          "type": "uint256"
        }
      ],
      "name": "getApproved",
      "outputs": [
        {
          "internalType": "address",
          "name": "",
          "type": "address"
        }
      ],
      "stateMutability": "view",
      "type": "function"
    },
    {
      "inputs": [
        {
          "internalType": "address",
          "name": "spender",
          "type": "address"
        }
      ],
      "name": "getControlledVaults",
      "outputs": [
        {
          "internalType": "uint256[]",
          "name": "",
          "type": "uint256[]"
        },
        {
          "internalType": "uint256",
          "name": "",
          "type": "uint256"
        }
      ],
      "stateMutability": "view",
      "type": "function"
    },
    {
      "inputs": [
        {
          "internalType": "uint256",
          "name": "vaultID",
          "type": "uint256"
        },
        {
          "internalType": "uint256",
          "name": "stablecoinAmount",
          "type": "uint256"
        },
        {
          "internalType": "uint256",
          "name": "senderBorrowFee",
          "type": "uint256"
        }
      ],
      "name": "getDebtOut",
      "outputs": [],
      "stateMutability": "nonpayable",
      "type": "function"
    },
    {
      "inputs": [],
      "name": "getTotalDebt",
      "outputs": [
        {
          "internalType": "uint256",
          "name": "",
          "type": "uint256"
        }
      ],
      "stateMutability": "view",
      "type": "function"
    },
    {
      "inputs": [
        {
          "internalType": "uint256",
          "name": "vaultID",
          "type": "uint256"
        }
      ],
      "name": "getVaultDebt",
      "outputs": [
        {
          "internalType": "uint256",
          "name": "",
          "type": "uint256"
        }
      ],
      "stateMutability": "view",
      "type": "function"
    },
    {
      "inputs": [
        {
          "internalType": "contract ITreasury",
          "name": "_treasury",
          "type": "address"
        },
        {
          "internalType": "contract IERC20",
          "name": "_collateral",
          "type": "address"
        },
        {
          "internalType": "contract IOracle",
          "name": "_oracle",
          "type": "address"
        },
        {
          "components": [
            {
              "internalType": "uint256",
              "name": "debtCeiling",
              "type": "uint256"
            },
            {
              "internalType": "uint64",
              "name": "collateralFactor",
              "type": "uint64"
            },
            {
              "internalType": "uint64",
              "name": "targetHealthFactor",
              "type": "uint64"
            },
            {
              "internalType": "uint64",
              "name": "borrowFee",
              "type": "uint64"
            },
            {
              "internalType": "uint64",
              "name": "interestRate",
              "type": "uint64"
            },
            {
              "internalType": "uint64",
              "name": "liquidationSurcharge",
              "type": "uint64"
            },
            {
              "internalType": "uint64",
              "name": "maxLiquidationDiscount",
              "type": "uint64"
            },
            {
              "internalType": "bool",
              "name": "whitelistingActivated",
              "type": "bool"
            },
            {
              "internalType": "uint256",
              "name": "baseBoost",
              "type": "uint256"
            }
          ],
          "internalType": "struct VaultParameters",
          "name": "params",
          "type": "tuple"
        },
        {
          "internalType": "string",
          "name": "_symbol",
          "type": "string"
        }
      ],
      "name": "initialize",
      "outputs": [],
      "stateMutability": "nonpayable",
      "type": "function"
    },
    {
      "inputs": [],
      "name": "interestAccumulator",
      "outputs": [
        {
          "internalType": "uint256",
          "name": "",
          "type": "uint256"
        }
      ],
      "stateMutability": "view",
      "type": "function"
    },
    {
      "inputs": [],
      "name": "interestRate",
      "outputs": [
        {
          "internalType": "uint64",
          "name": "",
          "type": "uint64"
        }
      ],
      "stateMutability": "view",
      "type": "function"
    },
    {
      "inputs": [
        {
          "internalType": "address",
          "name": "owner",
          "type": "address"
        },
        {
          "internalType": "address",
          "name": "operator",
          "type": "address"
        }
      ],
      "name": "isApprovedForAll",
      "outputs": [
        {
          "internalType": "bool",
          "name": "",
          "type": "bool"
        }
      ],
      "stateMutability": "view",
      "type": "function"
    },
    {
      "inputs": [
        {
          "internalType": "address",
          "name": "spender",
          "type": "address"
        },
        {
          "internalType": "uint256",
          "name": "vaultID",
          "type": "uint256"
        }
      ],
      "name": "isApprovedOrOwner",
      "outputs": [
        {
          "internalType": "bool",
          "name": "",
          "type": "bool"
        }
      ],
      "stateMutability": "view",
      "type": "function"
    },
    {
      "inputs": [
        {
          "internalType": "address",
          "name": "",
          "type": "address"
        }
      ],
      "name": "isWhitelisted",
      "outputs": [
        {
          "internalType": "bool",
          "name": "",
          "type": "bool"
        }
      ],
      "stateMutability": "view",
      "type": "function"
    },
    {
      "inputs": [],
      "name": "lastInterestAccumulatorUpdated",
      "outputs": [
        {
          "internalType": "uint256",
          "name": "",
          "type": "uint256"
        }
      ],
      "stateMutability": "view",
      "type": "function"
    },
    {
      "inputs": [
        {
          "internalType": "uint256[]",
          "name": "vaultIDs",
          "type": "uint256[]"
        },
        {
          "internalType": "uint256[]",
          "name": "amounts",
          "type": "uint256[]"
        },
        {
          "internalType": "address",
          "name": "from",
          "type": "address"
        },
        {
          "internalType": "address",
          "name": "to",
          "type": "address"
        },
        {
          "internalType": "address",
          "name": "who",
          "type": "address"
        },
        {
          "internalType": "bytes",
          "name": "data",
          "type": "bytes"
        }
      ],
      "name": "liquidate",
      "outputs": [
        {
          "components": [
            {
              "internalType": "uint256",
              "name": "stablecoinAmountToReceive",
              "type": "uint256"
            },
            {
              "internalType": "uint256",
              "name": "collateralAmountToGive",
              "type": "uint256"
            },
            {
              "internalType": "uint256",
              "name": "badDebtFromLiquidation",
              "type": "uint256"
            },
            {
              "internalType": "uint256",
              "name": "oracleValue",
              "type": "uint256"
            },
            {
              "internalType": "uint256",
              "name": "newInterestRateAccumulator",
              "type": "uint256"
            }
          ],
          "internalType": "struct LiquidatorData",
          "name": "liqData",
          "type": "tuple"
        }
      ],
      "stateMutability": "nonpayable",
      "type": "function"
    },
    {
      "inputs": [
        {
          "internalType": "uint256[]",
          "name": "vaultIDs",
          "type": "uint256[]"
        },
        {
          "internalType": "uint256[]",
          "name": "amounts",
          "type": "uint256[]"
        },
        {
          "internalType": "address",
          "name": "from",
          "type": "address"
        },
        {
          "internalType": "address",
          "name": "to",
          "type": "address"
        }
      ],
      "name": "liquidate",
      "outputs": [
        {
          "components": [
            {
              "internalType": "uint256",
              "name": "stablecoinAmountToReceive",
              "type": "uint256"
            },
            {
              "internalType": "uint256",
              "name": "collateralAmountToGive",
              "type": "uint256"
            },
            {
              "internalType": "uint256",
              "name": "badDebtFromLiquidation",
              "type": "uint256"
            },
            {
              "internalType": "uint256",
              "name": "oracleValue",
              "type": "uint256"
            },
            {
              "internalType": "uint256",
              "name": "newInterestRateAccumulator",
              "type": "uint256"
            }
          ],
          "internalType": "struct LiquidatorData",
          "name": "",
          "type": "tuple"
        }
      ],
      "stateMutability": "nonpayable",
      "type": "function"
    },
    {
      "inputs": [],
      "name": "liquidationSurcharge",
      "outputs": [
        {
          "internalType": "uint64",
          "name": "",
          "type": "uint64"
        }
      ],
      "stateMutability": "view",
      "type": "function"
    },
    {
      "inputs": [],
      "name": "maxLiquidationDiscount",
      "outputs": [
        {
          "internalType": "uint64",
          "name": "",
          "type": "uint64"
        }
      ],
      "stateMutability": "view",
      "type": "function"
    },
    {
      "inputs": [],
      "name": "name",
      "outputs": [
        {
          "internalType": "string",
          "name": "",
          "type": "string"
        }
      ],
      "stateMutability": "view",
      "type": "function"
    },
    {
      "inputs": [],
      "name": "oracle",
      "outputs": [
        {
          "internalType": "contract IOracle",
          "name": "",
          "type": "address"
        }
      ],
      "stateMutability": "view",
      "type": "function"
    },
    {
      "inputs": [
        {
          "internalType": "uint256",
          "name": "vaultID",
          "type": "uint256"
        }
      ],
      "name": "ownerOf",
      "outputs": [
        {
          "internalType": "address",
          "name": "",
          "type": "address"
        }
      ],
      "stateMutability": "view",
      "type": "function"
    },
    {
      "inputs": [],
      "name": "paused",
      "outputs": [
        {
          "internalType": "bool",
          "name": "",
          "type": "bool"
        }
      ],
      "stateMutability": "view",
      "type": "function"
    },
    {
      "inputs": [
        {
          "internalType": "address",
          "name": "from",
          "type": "address"
        },
        {
          "internalType": "address",
          "name": "to",
          "type": "address"
        },
        {
          "internalType": "uint256",
          "name": "vaultID",
          "type": "uint256"
        }
      ],
      "name": "safeTransferFrom",
      "outputs": [],
      "stateMutability": "nonpayable",
      "type": "function"
    },
    {
      "inputs": [
        {
          "internalType": "address",
          "name": "from",
          "type": "address"
        },
        {
          "internalType": "address",
          "name": "to",
          "type": "address"
        },
        {
          "internalType": "uint256",
          "name": "vaultID",
          "type": "uint256"
        },
        {
          "internalType": "bytes",
          "name": "_data",
          "type": "bytes"
        }
      ],
      "name": "safeTransferFrom",
      "outputs": [],
      "stateMutability": "nonpayable",
      "type": "function"
    },
    {
      "inputs": [
        {
          "internalType": "address",
          "name": "operator",
          "type": "address"
        },
        {
          "internalType": "bool",
          "name": "approved",
          "type": "bool"
        }
      ],
      "name": "setApprovalForAll",
      "outputs": [],
      "stateMutability": "nonpayable",
      "type": "function"
    },
    {
      "inputs": [
        {
          "internalType": "string",
          "name": "baseURI_",
          "type": "string"
        }
      ],
      "name": "setBaseURI",
      "outputs": [],
      "stateMutability": "nonpayable",
      "type": "function"
    },
    {
      "inputs": [
        {
          "internalType": "uint256",
          "name": "_debtCeiling",
          "type": "uint256"
        }
      ],
      "name": "setDebtCeiling",
      "outputs": [],
      "stateMutability": "nonpayable",
      "type": "function"
    },
    {
      "inputs": [
        {
          "internalType": "address",
          "name": "_veBoostProxy",
          "type": "address"
        },
        {
          "internalType": "uint256[]",
          "name": "xBoost",
          "type": "uint256[]"
        },
        {
          "internalType": "uint256[]",
          "name": "yBoost",
          "type": "uint256[]"
        }
      ],
      "name": "setLiquidationBoostParameters",
      "outputs": [],
      "stateMutability": "nonpayable",
      "type": "function"
    },
    {
      "inputs": [
        {
          "internalType": "address",
          "name": "_oracle",
          "type": "address"
        }
      ],
      "name": "setOracle",
      "outputs": [],
      "stateMutability": "nonpayable",
      "type": "function"
    },
    {
      "inputs": [
        {
          "internalType": "address",
          "name": "_treasury",
          "type": "address"
        }
      ],
      "name": "setTreasury",
      "outputs": [],
      "stateMutability": "nonpayable",
      "type": "function"
    },
    {
      "inputs": [
        {
          "internalType": "uint64",
          "name": "param",
          "type": "uint64"
        },
        {
          "internalType": "bytes32",
          "name": "what",
          "type": "bytes32"
        }
      ],
      "name": "setUint64",
      "outputs": [],
      "stateMutability": "nonpayable",
      "type": "function"
    },
    {
      "inputs": [],
      "name": "stablecoin",
      "outputs": [
        {
          "internalType": "contract IAgToken",
          "name": "",
          "type": "address"
        }
      ],
      "stateMutability": "view",
      "type": "function"
    },
    {
      "inputs": [
        {
          "internalType": "bytes4",
          "name": "interfaceId",
          "type": "bytes4"
        }
      ],
      "name": "supportsInterface",
      "outputs": [
        {
          "internalType": "bool",
          "name": "",
          "type": "bool"
        }
      ],
      "stateMutability": "pure",
      "type": "function"
    },
    {
      "inputs": [],
      "name": "surplus",
      "outputs": [
        {
          "internalType": "uint256",
          "name": "",
          "type": "uint256"
        }
      ],
      "stateMutability": "view",
      "type": "function"
    },
    {
      "inputs": [],
      "name": "symbol",
      "outputs": [
        {
          "internalType": "string",
          "name": "",
          "type": "string"
        }
      ],
      "stateMutability": "view",
      "type": "function"
    },
    {
      "inputs": [],
      "name": "targetHealthFactor",
      "outputs": [
        {
          "internalType": "uint64",
          "name": "",
          "type": "uint64"
        }
      ],
      "stateMutability": "view",
      "type": "function"
    },
    {
      "inputs": [],
      "name": "togglePause",
      "outputs": [],
      "stateMutability": "nonpayable",
      "type": "function"
    },
    {
      "inputs": [
        {
          "internalType": "address",
          "name": "target",
          "type": "address"
        }
      ],
      "name": "toggleWhitelist",
      "outputs": [],
      "stateMutability": "nonpayable",
      "type": "function"
    },
    {
      "inputs": [],
      "name": "toggleWhitelisting",
      "outputs": [],
      "stateMutability": "nonpayable",
      "type": "function"
    },
    {
      "inputs": [
        {
          "internalType": "uint256",
          "name": "vaultID",
          "type": "uint256"
        }
      ],
      "name": "tokenURI",
      "outputs": [
        {
          "internalType": "string",
          "name": "",
          "type": "string"
        }
      ],
      "stateMutability": "view",
      "type": "function"
    },
    {
      "inputs": [],
      "name": "totalNormalizedDebt",
      "outputs": [
        {
          "internalType": "uint256",
          "name": "",
          "type": "uint256"
        }
      ],
      "stateMutability": "view",
      "type": "function"
    },
    {
      "inputs": [
        {
          "internalType": "address",
          "name": "from",
          "type": "address"
        },
        {
          "internalType": "address",
          "name": "to",
          "type": "address"
        },
        {
          "internalType": "uint256",
          "name": "vaultID",
          "type": "uint256"
        }
      ],
      "name": "transferFrom",
      "outputs": [],
      "stateMutability": "nonpayable",
      "type": "function"
    },
    {
      "inputs": [],
      "name": "treasury",
      "outputs": [
        {
          "internalType": "contract ITreasury",
          "name": "",
          "type": "address"
        }
      ],
      "stateMutability": "view",
      "type": "function"
    },
    {
      "inputs": [
        {
          "internalType": "uint256",
          "name": "",
          "type": "uint256"
        }
      ],
      "name": "vaultData",
      "outputs": [
        {
          "internalType": "uint256",
          "name": "collateralAmount",
          "type": "uint256"
        },
        {
          "internalType": "uint256",
          "name": "normalizedDebt",
          "type": "uint256"
        }
      ],
      "stateMutability": "view",
      "type": "function"
    },
    {
      "inputs": [],
      "name": "veBoostProxy",
      "outputs": [
        {
          "internalType": "contract IVeBoostProxy",
          "name": "",
          "type": "address"
        }
      ],
      "stateMutability": "view",
      "type": "function"
    },
    {
      "inputs": [],
      "name": "whitelistingActivated",
      "outputs": [
        {
          "internalType": "bool",
          "name": "",
          "type": "bool"
        }
      ],
      "stateMutability": "view",
      "type": "function"
    },
    {
      "inputs": [
        {
          "internalType": "uint256",
          "name": "",
          "type": "uint256"
        }
      ],
      "name": "xLiquidationBoost",
      "outputs": [
        {
          "internalType": "uint256",
          "name": "",
          "type": "uint256"
        }
      ],
      "stateMutability": "view",
      "type": "function"
    },
    {
      "inputs": [
        {
          "internalType": "uint256",
          "name": "",
          "type": "uint256"
        }
      ],
      "name": "yLiquidationBoost",
      "outputs": [
        {
          "internalType": "uint256",
          "name": "",
          "type": "uint256"
        }
      ],
      "stateMutability": "view",
      "type": "function"
    }
  ],
  "bytecode": "0x60c06040523480156200001157600080fd5b5060405162005ea638038062005ea6833981016040819052620000349162000136565b60005482908290610100900460ff16620000555760005460ff16156200005f565b6200005f62000112565b620000c75760405162461bcd60e51b815260206004820152602e60248201527f496e697469616c697a61626c653a20636f6e747261637420697320616c72656160448201526d191e481a5b9a5d1a585b1a5e995960921b606482015260840160405180910390fd5b600054610100900460ff16158015620000ea576000805461ffff19166101011790555b608083905260a0829052801562000107576000805461ff00191690555b50505050506200015b565b60006200012a306200013060201b620032351760201c565b15905090565b3b151590565b600080604083850312156200014a57600080fd5b505080516020909101519092909150565b60805160a051615d02620001a46000396000818161397f01526139b0015260008181610a7f0152818161385d015281816138fb01528181613b7a01526147790152615d026000f3fe6080604052600436106102bd5760003560e01c8063010db195146102c257806301ffc9a7146102f857806306fdde0314610328578063081812fc1461034a578063087a60071461036a578063095ea7b31461038e5780630e198f22146103b057806313888565146103c657806323b872dd146103dc578063254cf439146103fc578063307439af1461043b57806334ce998a1461046857806335836f151461047d57806339393ac91461049d57806339eb4dc6146104bd5780633ae2325f146104d75780633af32abf146104f757806342842e0e14610527578063430c2081146105475780634f7e43df1461056757806355f804b31461058e5780635c975abb146105ae57806361d027b3146105cd5780636352211e146105ed57806370a082311461060d578063741075431461062d5780637aacfffa1461064d5780637adbf973146106965780637c3a00fd146106b65780637dc0d1d0146106dd5780637e53bd97146106fd5780637e56d47c1461071d57806383ba59fc1461073d57806389050f1d1461076b57806395d89b411461078a5780639a3b6f2f1461079f5780639f48118f146107e5578063a22cb465146107fd578063af2c8c2e1461081d578063b1511cc914610833578063b4bd6f4614610853578063b88d4fde14610873578063bbcac55714610893578063c4ae3168146108a9578063c66d8b01146108be578063c87b56dd146108de578063d645c393146108fe578063d6bcab2a1461091e578063d8dfeb451461093e578063de1f77651461095e578063de8fc6981461097d578063df011c4114610990578063e182b883146109b0578063e1c84ea4146109d0578063e626648a146109e6578063e985e9c514610a0d578063e9cbd82214610a2d578063f0f4426014610a4d578063fad9aba314610a6d578063fbefa41314610aa1578063fc29b02114610ab6578063fd527cf814610ad6575b600080fd5b3480156102ce57600080fd5b506037546102e2906001600160a01b031681565b6040516102ef9190614c1e565b60405180910390f35b34801561030457600080fd5b50610318610313366004614c4b565b610aeb565b60405190151581526020016102ef565b34801561033457600080fd5b5061033d610b50565b6040516102ef9190614cc0565b34801561035657600080fd5b506102e2610365366004614cd3565b610bde565b34801561037657600080fd5b50610380603f5481565b6040519081526020016102ef565b34801561039a57600080fd5b506103ae6103a9366004614d01565b610c17565b005b3480156103bc57600080fd5b50610380603e5481565b3480156103d257600080fd5b5061038060415481565b3480156103e857600080fd5b506103ae6103f7366004614d2d565b610cb2565b34801561040857600080fd5b50603c5461042390600160401b90046001600160401b031681565b6040516001600160401b0390911681526020016102ef565b34801561044757600080fd5b5061045b610456366004614d6e565b610cec565b6040516102ef9190614d9e565b34801561047457600080fd5b50610380610d9e565b34801561048957600080fd5b50610380610498366004614cd3565b610dd0565b3480156104a957600080fd5b506103ae6104b8366004614dd7565b610e0c565b3480156104c957600080fd5b506045546103189060ff1681565b3480156104e357600080fd5b506103806104f2366004614cd3565b610ec2565b34801561050357600080fd5b50610318610512366004614dd7565b60446020526000908152604090205460ff1681565b34801561053357600080fd5b506103ae610542366004614d2d565b610ee3565b34801561055357600080fd5b50610318610562366004614d01565b610efe565b34801561057357600080fd5b50603d5461042390600160401b90046001600160401b031681565b34801561059a57600080fd5b506103ae6105a9366004614ea9565b610f0a565b3480156105ba57600080fd5b5060455461031890610100900460ff1681565b3480156105d957600080fd5b506033546102e2906001600160a01b031681565b3480156105f957600080fd5b506102e2610608366004614cd3565b610fae565b34801561061957600080fd5b50610380610628366004614dd7565b610fb9565b34801561063957600080fd5b506103ae610648366004614ef4565b611011565b34801561065957600080fd5b50610681610668366004614cd3565b6043602052600090815260409020805460019091015482565b604080519283526020830191909152016102ef565b3480156106a257600080fd5b506103ae6106b1366004614dd7565b6113c3565b3480156106c257600080fd5b50603c5461042390600160c01b90046001600160401b031681565b3480156106e957600080fd5b506036546102e2906001600160a01b031681565b34801561070957600080fd5b506103ae610718366004614f9e565b611530565b34801561072957600080fd5b5061045b610738366004615013565b61171e565b34801561074957600080fd5b5061075d610758366004614dd7565b611bd1565b6040516102ef929190615112565b34801561077757600080fd5b50610380676765c793fa10079d601a1b81565b34801561079657600080fd5b5061033d611cf1565b6107b26107ad36600461521c565b611cfe565b6040516102ef91908151815260208083015190820152604080830151908201526060918201519181019190915260800190565b3480156107f157600080fd5b50610380633b9aca0081565b34801561080957600080fd5b506103ae6108183660046152b2565b611d33565b34801561082957600080fd5b5061038060405481565b34801561083f57600080fd5b506103ae61084e366004614cd3565b611ddd565b34801561085f57600080fd5b5061038061086e366004614dd7565b611ea6565b34801561087f57600080fd5b506103ae61088e3660046152e0565b611edf565b34801561089f57600080fd5b5061038060425481565b3480156108b557600080fd5b506103ae611f1b565b3480156108ca57600080fd5b50603d54610423906001600160401b031681565b3480156108ea57600080fd5b5061033d6108f9366004614cd3565b611fc5565b34801561090a57600080fd5b506103ae61091936600461534b565b61211d565b34801561092a57600080fd5b506103ae610939366004615377565b61226f565b34801561094a57600080fd5b506034546102e2906001600160a01b031681565b34801561096a57600080fd5b50610380676765c793fa10079d601b1b81565b6107b261098b36600461540b565b61280c565b34801561099c57600080fd5b50603c54610423906001600160401b031681565b3480156109bc57600080fd5b506103806109cb366004614cd3565b612f42565b3480156109dc57600080fd5b5061038060395481565b3480156109f257600080fd5b50603c5461042390600160801b90046001600160401b031681565b348015610a1957600080fd5b50610318610a28366004615469565b612f52565b348015610a3957600080fd5b506035546102e2906001600160a01b031681565b348015610a5957600080fd5b506103ae610a68366004614dd7565b612f80565b348015610a7957600080fd5b506103807f000000000000000000000000000000000000000000000000000000000000000081565b348015610aad57600080fd5b506103ae61301f565b348015610ac257600080fd5b5061045b610ad1366004615497565b6130f0565b348015610ae257600080fd5b5061068161311a565b60006001600160e01b03198216635b5e139f60e01b1480610b1c57506001600160e01b031982166380ac58cd60e01b145b80610b2f57506001600160e01b03198216155b80610b4a57506001600160e01b031982166301ffc9a760e01b145b92915050565b607e8054610b5d906154f3565b80601f0160208091040260200160405190810160405280929190818152602001828054610b89906154f3565b8015610bd65780601f10610bab57610100808354040283529160200191610bd6565b820191906000526020600020905b815481529060010190602001808311610bb957829003601f168201915b505050505081565b6000610be98261323b565b610c0e5760405162461bcd60e51b8152600401610c0590615528565b60405180910390fd5b610b4a82613258565b6000610c2282613273565b9050806001600160a01b0316836001600160a01b03161415610c6b5760405162461bcd60e51b8152602060048201526002602482015261323760f01b6044820152606401610c05565b336001600160a01b0382161480610c875750610c878133612f52565b610ca35760405162461bcd60e51b8152600401610c0590615544565b610cad83836132a8565b505050565b3381610cbe8282613316565b610cda5760405162461bcd60e51b8152600401610c0590615544565b610ce5858585613394565b5050505050565b610cf4614af4565b60008381526043602090815260409182902082518084018452815481526001909101548183015260365483516315f789a960e21b81529351610d9794929387936001600160a01b03909316926357de26a492600480830193928290030181865afa158015610d66573d6000803e3d6000fd5b505050506040513d601f19601f82011682018060405250810190610d8a9190615560565b610d926134d9565b613675565b9392505050565b6000676765c793fa10079d601b1b610db46134d9565b604054610dc1919061558f565b610dcb91906155c4565b905090565b6000676765c793fa10079d601b1b610de66134d9565b600084815260436020526040902060010154610e02919061558f565b610b4a91906155c4565b603354604051631c86b03760e31b81526001600160a01b039091169063e43581b890610e3c903390600401614c1e565b602060405180830381865afa158015610e59573d6000803e3d6000fd5b505050506040513d601f19601f82011682018060405250810190610e7d91906155d8565b610e995760405162461bcd60e51b8152600401610c05906155f5565b6001600160a01b03166000908152604460205260409020805460ff19811660ff90911615179055565b603b8181548110610ed257600080fd5b600091825260209091200154905081565b610cad83838360405180602001604052806000815250611edf565b6000610d978383613316565b60335460405163521d4de960e01b81526001600160a01b039091169063521d4de990610f3a903390600401614c1e565b602060405180830381865afa158015610f57573d6000803e3d6000fd5b505050506040513d601f19601f82011682018060405250810190610f7b91906155d8565b610f975760405162461bcd60e51b8152600401610c0590615610565b8051610faa906046906020840190614b23565b5050565b6000610b4a82613273565b60006001600160a01b038216610ff55760405162461bcd60e51b81526020600482015260016024820152600360fc1b6044820152606401610c05565b506001600160a01b031660009081526049602052604090205490565b60335460405163521d4de960e01b81526001600160a01b039091169063521d4de990611041903390600401614c1e565b602060405180830381865afa15801561105e573d6000803e3d6000fd5b505050506040513d601f19601f8201168201806040525081019061108291906155d8565b61109e5760405162461bcd60e51b8152600401610c0590615610565b806f31b7b63630ba32b930b62330b1ba37b960811b141561110857603d546001600160401b0390811690831611156110e85760405162461bcd60e51b8152600401610c059061562b565b603c80546001600160401b0319166001600160401b03841617905561137c565b80713a30b933b2ba2432b0b63a342330b1ba37b960711b141561119057633b9aca00826001600160401b031610156111675760405162461bcd60e51b8152602060048201526002602482015261313760f01b6044820152606401610c05565b603c8054600160401b600160801b031916600160401b6001600160401b0385160217905561137c565b8068626f72726f7746656560b81b14156111fa57633b9aca00826001600160401b031611156111d15760405162461bcd60e51b8152600401610c059061562b565b603c8054600160801b600160c01b031916600160801b6001600160401b0385160217905561137c565b806b696e7465726573745261746560a01b141561123e57611219613a2a565b603c80546001600160c01b0316600160c01b6001600160401b0385160217905561137c565b80736c69717569646174696f6e53757263686172676560601b14156112d957603c546001600160401b038084169116118015906112885750633b9aca00826001600160401b031611155b6112b95760405162461bcd60e51b8152602060048201526002602482015261062760f31b6044820152606401610c05565b603d80546001600160401b0319166001600160401b03841617905561137c565b80751b585e131a5c5d5a59185d1a5bdb911a5cd8dbdd5b9d60521b141561134f57633b9aca00826001600160401b0316106113265760405162461bcd60e51b8152600401610c059061562b565b603d8054600160401b600160801b031916600160401b6001600160401b0385160217905561137c565b60405162461bcd60e51b8152602060048201526002602482015261343360f01b6044820152606401610c05565b604080516001600160401b0384168152602081018390527f13b367dac93b85d1ed9b3d8961d8b48e1a677c9800bb1613b4b0416b2d5b61d091015b60405180910390a15050565b603354604051631c86b03760e31b81526001600160a01b039091169063e43581b8906113f3903390600401614c1e565b602060405180830381865afa158015611410573d6000803e3d6000fd5b505050506040513d601f19601f8201168201806040525081019061143491906155d8565b6114505760405162461bcd60e51b8152600401610c05906155f5565b603354604080516361d027b360e01b815290516001600160a01b03928316928416916361d027b39160048083019260209291908290030181865afa15801561149c573d6000803e3d6000fd5b505050506040513d601f19601f820116820180604052508101906114c09190615646565b6001600160a01b0316146114e65760405162461bcd60e51b8152600401610c0590615663565b603680546001600160a01b0319166001600160a01b0383169081179091556040517f3df77beb5db05fcdd70a30fc8adf3f83f9501b68579455adbd100b818094039490600090a250565b60335460405163521d4de960e01b81526001600160a01b039091169063521d4de990611560903390600401614c1e565b602060405180830381865afa15801561157d573d6000803e3d6000fd5b505050506040513d601f19601f820116820180604052508101906115a191906155d8565b6115bd5760405162461bcd60e51b8152600401610c0590615610565b805182511480156115e857506000816000815181106115de576115de61567f565b6020026020010151115b801561167757506001600160a01b03831615806116775750816000815181106116135761161361567f565b60200260200101518260018151811061162e5761162e61567f565b60200260200101511180156116775750806000815181106116515761165161567f565b60200260200101518160018151811061166c5761166c61567f565b602002602001015110155b6116935760405162461bcd60e51b8152600401610c0590615695565b603780546001600160a01b0319166001600160a01b03851617905581516116c190603a906020850190614ba7565b5080516116d590603b906020840190614ba7565b50826001600160a01b03167feb74d4d9fea592587c926aeb35eb6a7893fb28db0c1c8eb2eb3c586e7164b76c83836040516117119291906156b1565b60405180910390a2505050565b611726614af4565b604554610100900460ff161561174e5760405162461bcd60e51b8152600401610c05906156d6565b600260015414156117715760405162461bcd60e51b8152600401610c05906156f2565b600260015585518751146117ac5760405162461bcd60e51b8152602060048201526002602482015261323560f01b6044820152606401610c05565b603660009054906101000a90046001600160a01b03166001600160a01b03166357de26a46040518163ffffffff1660e01b8152600401602060405180830381865afa1580156117ff573d6000803e3d6000fd5b505050506040513d601f19601f820116820180604052508101906118239190615560565b60608201526118306134d9565b608082015260005b8751811015611b49576000604360008a84815181106118595761185961567f565b6020026020010151815260200190815260200160002060405180604001604052908160008201548152602001600182015481525050905060006118a6823386606001518760800151613675565b9050600081604001511180156118d8575080604001518984815181106118ce576118ce61567f565b6020026020010151115b806118ff575080600001518984815181106118f5576118f561567f565b6020026020010151115b1561192857806000015189848151811061191b5761191b61567f565b6020026020010181815250505b60008460600151826060015161193e919061558f565b603854633b9aca008c87815181106119585761195861567f565b602002602001015161196a919061558f565b611974919061558f565b61197e91906155c4565b905080836000015111611a365782600001519050604360008c86815181106119a8576119a861567f565b6020908102919091018101518252810191909152604001600090812081815560010155603d548a51633b9aca00916001600160401b0316908c90879081106119f2576119f261567f565b6020026020010151611a04919061558f565b611a0e91906155c4565b8260800151611a1d9190615729565b85604001818151611a2e9190615740565b905250611aec565b80604360008d8781518110611a4d57611a4d61567f565b602002602001015181526020019081526020016000206000016000828254611a759190615729565b92505081905550611ae98b8581518110611a9157611a9161567f565b6020908102919091010151603d548c51633b9aca00916001600160401b0316908e9089908110611ac357611ac361567f565b6020026020010151611ad5919061558f565b611adf91906155c4565b8760800151613ac4565b50505b8085602001818151611afe9190615740565b90525089518a9085908110611b1557611b1561567f565b602002602001015185600001818151611b2e9190615740565b905250839250611b419150829050615758565b915050611838565b50603d54633b9aca0090611b66906001600160401b031682615729565b8251611b72919061558f565b611b7c91906155c4565b60416000828254611b8d9190615740565b9091555050604081015160428054600090611ba9908490615740565b909155505060208101518151611bc3919087878787613c0e565b600180559695505050505050565b60475460609060009081816001600160401b03811115611bf357611bf3614df4565b604051908082528060200260200182016040528015611c1c578160200160208202803683370190505b50905060008060015b848111611ce3576000818152604860205260409020546001600160a01b0390811693508816831480611c705750876001600160a01b0316611c6582613258565b6001600160a01b0316145b80611ca057506001600160a01b038084166000908152604b60209081526040808320938c168352929052205460ff165b15611cd15780848381518110611cb857611cb861567f565b6020908102919091010152611cce600183615740565b91505b80611cdb81615758565b915050611c25565b509196919550909350505050565b607f8054610b5d906154f3565b611d06614be1565b60408051600080825260208201909252611d289187918791879187919061280c565b90505b949350505050565b6001600160a01b038216331415611d715760405162461bcd60e51b8152602060048201526002602482015261064760f31b6044820152606401610c05565b336000818152604b602090815260408083206001600160a01b03871680855290835292819020805460ff191686151590811790915590519081529192917f17307eab39ab6107e8899845ad3d59bd9653f200f220920489ca2b5937696c31910160405180910390a35050565b60335460405163521d4de960e01b81526001600160a01b039091169063521d4de990611e0d903390600401614c1e565b602060405180830381865afa158015611e2a573d6000803e3d6000fd5b505050506040513d601f19601f82011682018060405250810190611e4e91906155d8565b611e6a5760405162461bcd60e51b8152600401610c0590615610565b60398190556040518181527fdd63b3dcdbebad734892f7c7a26d0f647fbc7eec973e0775f5229018ac4ab47a906020015b60405180910390a150565b604554600090610100900460ff1615611ed15760405162461bcd60e51b8152600401610c05906156d6565b610b4a82613d18565b919050565b3382611eeb8282613316565b611f075760405162461bcd60e51b8152600401610c0590615544565b611f1386868686613e17565b505050505050565b60335460405163521d4de960e01b81526001600160a01b039091169063521d4de990611f4b903390600401614c1e565b602060405180830381865afa158015611f68573d6000803e3d6000fd5b505050506040513d601f19601f82011682018060405250810190611f8c91906155d8565b611fa85760405162461bcd60e51b8152600401610c0590615610565b6045805461ff001981166101009182900460ff1615909102179055565b6060611fd08261323b565b611fec5760405162461bcd60e51b8152600401610c0590615528565b8160005b8115612016578061200081615758565b915061200f9050600a836155c4565b9150611ff0565b6000816001600160401b0381111561203057612030614df4565b6040519080825280601f01601f19166020018201604052801561205a576020820181803683370190505b5090505b84156120c55761206f600183615729565b915061207c600a86615773565b612087906030615740565b60f81b81838151811061209c5761209c61567f565b60200101906001600160f81b031916908160001a9053506120be600a866155c4565b945061205e565b6000604680546120d4906154f3565b9050116120f05760405180602001604052806000815250612114565b6046816040516020016121049291906157a3565b6040516020818303038152906040525b95945050505050565b604554610100900460ff16156121455760405162461bcd60e51b8152600401610c05906156d6565b6033546040516333b52a9f60e11b81526001600160a01b039091169063676a553e90612175903390600401614c1e565b602060405180830381865afa158015612192573d6000803e3d6000fd5b505050506040513d601f19601f820116820180604052508101906121b691906155d8565b6121e65760405162461bcd60e51b81526020600482015260016024820152603360f81b6044820152606401610c05565b603c54600160801b90046001600160401b031681111561226357603c54600090633b9aca0090849061222890600160801b90046001600160401b031685615729565b612232919061558f565b61223c91906155c4565b90506122488184615729565b9250806041600082825461225c9190615740565b9091555050505b610ce583836000613ac4565b600054610100900460ff1661228a5760005460ff161561228e565b303b155b6122f15760405162461bcd60e51b815260206004820152602e60248201527f496e697469616c697a61626c653a20636f6e747261637420697320616c72656160448201526d191e481a5b9a5d1a585b1a5e995960921b6064820152608401610c05565b600054610100900460ff16158015612313576000805461ffff19166101011790555b856001600160a01b0316846001600160a01b03166361d027b36040518163ffffffff1660e01b8152600401602060405180830381865afa15801561235b573d6000803e3d6000fd5b505050506040513d601f19601f8201168201806040525081019061237f9190615646565b6001600160a01b0316146123a55760405162461bcd60e51b8152600401610c0590615663565b603380546001600160a01b038089166001600160a01b0319928316179092556034805492881692909116821790556040805163313ce56760e01b8152905163313ce567916004808201926020929091908290030181865afa15801561240e573d6000803e3d6000fd5b505050506040513d601f19601f820116820180604052508101906124329190615841565b61243d90600a615948565b603881905550856001600160a01b031663e9cbd8226040518163ffffffff1660e01b8152600401602060405180830381865afa158015612481573d6000803e3d6000fd5b505050506040513d601f19601f820116820180604052508101906124a59190615646565b603580546001600160a01b03199081166001600160a01b0393841617909155603680549091169186169190911790556040516124e5908390602001615957565b604051602081830303815290604052607e9080519060200190612509929190614b23565b508160405160200161251b919061599e565b604051602081830303815290604052607f908051906020019061253f929190614b23565b50676765c793fa10079d601b1b603f5542603e5561256360c0840160a085016159c8565b6001600160401b031661257c60408501602086016159c8565b6001600160401b0316111580156125af575061259e60608401604085016159c8565b6001600160401b0316633b9aca0011155b80156125d75750633b9aca006125cb60c0850160a086016159c8565b6001600160401b031611155b80156125ff5750633b9aca006125f360808501606086016159c8565b6001600160401b031611155b80156126265750633b9aca0061261b60e0850160c086016159c8565b6001600160401b0316105b801561263757508261010001356000105b6126535760405162461bcd60e51b8152600401610c0590615695565b823560395561266860408401602085016159c8565b603c80546001600160401b0319166001600160401b039290921691909117905561269860608401604085016159c8565b603c80546001600160401b0392909216600160401b02600160401b600160801b03199092169190911790556126d360808401606085016159c8565b603c80546001600160401b0392909216600160801b02600160801b600160c01b031990921691909117905561270e60a08401608085016159c8565b603c80546001600160401b0392909216600160c01b026001600160c01b0390921691909117905561274560c0840160a085016159c8565b603d80546001600160401b0319166001600160401b039290921691909117905561277560e0840160c085016159c8565b603d80546001600160401b0392909216600160401b02600160401b600160801b03199092169190911790556127b1610100840160e085016159e3565b6045805460ff1916911515919091179055604080516020810190915261010084013581526127e390603b906001614ba7565b506045805461ff0019166101001790558015611f13576000805461ff0019169055505050505050565b612814614be1565b604554610100900460ff161561283c5760405162461bcd60e51b8152600401610c05906156d6565b6002600154141561285f5760405162461bcd60e51b8152600401610c05906156f2565b6002600155600080808080805b8c51811015612cab5760008d82815181106128895761288961567f565b60200260200101519050600060078111156128a6576128a6615a00565b8160078111156128b8576128b8615a00565b14156128f9576128f38d83815181106128d3576128d361567f565b60200260200101518060200190518101906128ee9190615646565b613d18565b50612c98565b600181600781111561290d5761290d615a00565b14156129895761294a8d83815181106129285761292861567f565b60200260200101518060200190518101906129439190615560565b8789613e50565b60408c018051919b5091995091975091955086919061296a908390615740565b905250602088018051859190612981908390615740565b905250612c98565b600281600781111561299d5761299d615a00565b14156129f0578c82815181106129b5576129b561567f565b60200260200101518060200190518101906129d09190615a16565b955092506129de8386613f01565b84886060018181516129819190615740565b6003816007811115612a0457612a04615a00565b1415612a61578c8281518110612a1c57612a1c61567f565b6020026020010151806020019051810190612a379190615a16565b95509250612a478386888a613f47565b809850819750505084886040018181516129819190615740565b6004816007811115612a7557612a75615a00565b1415612ad1578c8281518110612a8d57612a8d61567f565b6020026020010151806020019051810190612aa89190615a16565b94509250612ab7838589613ac4565b809850819550505083886020018181516129819190615740565b6005816007811115612ae557612ae5615a00565b1415612b42578c8281518110612afd57612afd61567f565b6020026020010151806020019051810190612b189190615a16565b94509250612b288385888a614031565b8a5190995090975090945084908990612981908390615740565b6006816007811115612b5657612b56615a00565b1415612baf576000808e8481518110612b7157612b7161567f565b6020026020010151806020019051810190612b8c9190615a3a565b985091965092509050612ba3858383898c8e6140d6565b99509750612c98915050565b6007816007811115612bc357612bc3615a00565b1415612c985760008060008f8581518110612be057612be061567f565b6020026020010151806020019051810190612bfb9190615a78565b60345460405163d505accf60e01b81526001600160a01b038089166004830152306024830152604482018890526064820187905260ff8616608483015260a4820185905260c48201849052969f50939d50939b509497509550929350169063d505accf9060e401600060405180830381600087803b158015612c7c57600080fd5b505af1158015612c90573d6000803e3d6000fd5b505050505050505b5080612ca381615758565b91505061286c565b508551602087015110612da25785516020870151600091612ccb91615729565b90508660600151876040015110612d0257612cfd87606001518860400151612cf39190615729565b828d8d8d8d613c0e565b612d9c565b8015612d6f57603554604051630d43af8160e21b81526001600160a01b039091169063350ebe0490612d3c9084908f903390600401615acb565b600060405180830381600087803b158015612d5657600080fd5b505af1158015612d6a573d6000803e3d6000fd5b505050505b612d9c333089604001518a60600151612d889190615729565b6034546001600160a01b03169291906141c2565b50612f2e565b60208601518651600091612db591615729565b6035546040516340c10f1960e01b81529192506001600160a01b0316906340c10f1990612de8908d908590600401615aea565b600060405180830381600087803b158015612e0257600080fd5b505af1158015612e16573d6000803e3d6000fd5b50505050866060015187604001511115612e5a57612e558a88606001518960400151612e429190615729565b6034546001600160a01b0316919061422d565b612f2c565b600087604001518860600151612e709190615729565b90508015612f2a57885115612f1257896001600160a01b031663a5d4096b603560009054906101000a90046001600160a01b0316603460009054906101000a90046001600160a01b03163386868f6040518763ffffffff1660e01b8152600401612edf96959493929190615b03565b600060405180830381600087803b158015612ef957600080fd5b505af1158015612f0d573d6000803e3d6000fd5b505050505b603454612f2a906001600160a01b03163330846141c2565b505b505b505060018055509198975050505050505050565b603a8181548110610ed257600080fd5b6001600160a01b039182166000908152604b6020908152604080832093909416825291909152205460ff1690565b6033546001600160a01b03163314612faa5760405162461bcd60e51b8152600401610c0590615b51565b603380546001600160a01b0319166001600160a01b0383811691909117909155603654604051630787a21360e51b815291169063f0f4426090612ff1908490600401614c1e565b600060405180830381600087803b15801561300b57600080fd5b505af1158015610ce5573d6000803e3d6000fd5b603354604051631c86b03760e31b81526001600160a01b039091169063e43581b89061304f903390600401614c1e565b602060405180830381865afa15801561306c573d6000803e3d6000fd5b505050506040513d601f19601f8201168201806040525081019061309091906155d8565b6130ac5760405162461bcd60e51b8152600401610c05906155f5565b6045805460ff81161560ff1990911681179091556040518181527f9c4ac7d44b0a53ec3cc5ee648f44fa9e0a29b95945172b5f74b52462b9c1d85b90602001611e9b565b6130f8614af4565b60408051600080825260208201909252611d289187918791879187919061171e565b60335460009081906001600160a01b031633146131495760405162461bcd60e51b8152600401610c0590615b51565b613151613a2a565b50506041546042548082106131dd5761316a8183615729565b6035546033546040516340c10f1960e01b8152929450600093506001600160a01b03918216926340c10f19926131a69216908690600401615aea565b600060405180830381600087803b1580156131c057600080fd5b505af11580156131d4573d6000803e3d6000fd5b505050506131ee565b6131e78282615729565b9050600091505b6000604181905560425560408051838152602081018390527ffeb12225c131aab793a00c5239afb778932d170fa28ce6e9d23703e4bd892121910160405180910390a19091565b3b151590565b6000908152604860205260409020546001600160a01b0316151590565b6000908152604a60205260409020546001600160a01b031690565b6000818152604860205260409020546001600160a01b031680611eda5760405162461bcd60e51b8152600401610c0590615528565b6000818152604a6020526040902080546001600160a01b0319166001600160a01b03841690811790915581906132dd82613273565b6001600160a01b03167f8c5be1e5ebec7d5bd14f71427d1e84f3dd0314c0f7b2291e5b200ac8c7c3b92560405160405180910390a45050565b60008061332283613273565b9050806001600160a01b0316846001600160a01b0316148061335d5750836001600160a01b031661335284613258565b6001600160a01b0316145b80611d2b57506001600160a01b038082166000908152604b602090815260408083209388168352929052205460ff16949350505050565b826001600160a01b03166133a782613273565b6001600160a01b0316146133e25760405162461bcd60e51b8152602060048201526002602482015261033360f41b6044820152606401610c05565b6001600160a01b03821661341d5760405162461bcd60e51b8152602060048201526002602482015261333160f01b6044820152606401610c05565b60455460ff16158061344757506001600160a01b03821660009081526044602052604090205460ff165b6134635760405162461bcd60e51b8152600401610c0590615b6d565b61346e6000826132a8565b6001600160a01b038084166000818152604960209081526040808320805460001901905593861680835284832080546001019055858352604890915283822080546001600160a01b03191682179055925184939291600080516020615cad83398151915291a4505050565b600080603e54426134ea9190615729565b603c54909150600160c01b90046001600160401b031681158061350b575080155b1561351a57603f549250505090565b6000613527600184615729565b905060006002841161353a576000613545565b613545600285615729565b90506000676765c793fa10079d601b1b676765c793fa10079d601a1b61356b868061558f565b6135759190615740565b61357f91906155c4565b90506000676765c793fa10079d601b1b676765c793fa10079d601a1b6135a5878561558f565b6135af9190615740565b6135b991906155c4565b905060006002836135ca878a61558f565b6135d4919061558f565b6135de91906155c4565b90506000600683866135f0898c61558f565b6135fa919061558f565b613604919061558f565b61360e91906155c4565b9050676765c793fa10079d601b1b81836136288b8b61558f565b61363d90676765c793fa10079d601b1b615740565b6136479190615740565b6136519190615740565b603f5461365e919061558f565b61366891906155c4565b9850505050505050505090565b61367d614af4565b600080600061368d88878761424c565b5050925092509250633b9aca0083106136cd5760405162461bcd60e51b81526020600482015260026024820152610d0d60f21b6044820152606401610c05565b6000633b9aca006136de8582615729565b6136e78a614370565b6136f1919061558f565b6136fb91906155c4565b603d54909150600160401b90046001600160401b031681101561372b5761372681633b9aca00615729565b61374c565b603d5461374c90600160401b90046001600160401b0316633b9aca00615729565b603d549091506001600160401b031660008061376d6002633b9aca00615948565b603c5461378391906001600160401b031661558f565b8361378e868a61558f565b613798919061558f565b1061393c57603c546001600160401b03166137b86002633b9aca00615948565b6137c2919061558f565b603c5485906137e190600160401b90046001600160401b03168661558f565b6137eb919061558f565b6137f59190615729565b603c548590633b9aca0090613813906001600160401b03168961558f565b603c54613831908b90600160401b90046001600160401b031661558f565b61383b9190615729565b613845919061558f565b61384f919061558f565b61385991906155c4565b91507f0000000000000000000000000000000000000000000000000000000000000000633b9aca0061388b858561558f565b61389591906155c4565b61389f9190615740565b8611613937576138ba676765c793fa10079d601b1b8461558f565b633b9aca008a8e602001516138cf919061558f565b6138d9919061558f565b6138e391906155c4565b6138ee906001615740565b915082633b9aca006139207f000000000000000000000000000000000000000000000000000000000000000089615729565b61392a919061558f565b61393491906155c4565b90505b6139d8565b60385461394d90633b9aca0061558f565b8c518b9061395c90879061558f565b613966919061558f565b61397091906155c4565b61397b906001615740565b91507f00000000000000000000000000000000000000000000000000000000000000008511156139d557633b9aca00846139207f000000000000000000000000000000000000000000000000000000000000000088615729565b50805b8188526139e5848b61558f565b6038546139f6633b9aca008561558f565b613a00919061558f565b613a0a91906155c4565b602089015260408801525050606085015250608083015250949350505050565b6000613a346134d9565b90506000676765c793fa10079d601b1b603f5483613a529190615729565b604054613a5f919061558f565b613a6991906155c4565b90508060416000828254613a7d9190615740565b9091555050603f82905542603e8190556040805184815260208101929092527f257ac715ccda9b5cfb21d54ca066524502c8103b5ebb5dcb23b03dad0f02be6591016113b7565b60008082613ad757613ad46134d9565b92505b60008581526043602052604081206001015490676765c793fa10079d601b1b613b00868461558f565b613b0a91906155c4565b9050808610613b1b57945080613b3e565b84613b31676765c793fa10079d601b1b8861558f565b613b3b91906155c4565b90505b613b488183615729565b91508060406000828254613b5c9190615729565b9091555050811580613baa5750613b9e676765c793fa10079d601b1b7f000000000000000000000000000000000000000000000000000000000000000061558f565b613ba8868461558f565b115b613bc65760405162461bcd60e51b8152600401610c0590615b89565b60008781526043602052604080822060010184905551600080516020615c6d83398151915291613bf9918a918591615ba5565b60405180910390a15093959294509192505050565b8515613c2b57603454613c2b906001600160a01b0316848861422d565b8415611f1357805115613caa5760345460355460405163a5d4096b60e01b81526001600160a01b038086169363a5d4096b93613c779391831692169089908b908d908990600401615b03565b600060405180830381600087803b158015613c9157600080fd5b505af1158015613ca5573d6000803e3d6000fd5b505050505b603554604051630d43af8160e21b81526001600160a01b039091169063350ebe0490613cde90889088903390600401615acb565b600060405180830381600087803b158015613cf857600080fd5b505af1158015613d0c573d6000803e3d6000fd5b50505050505050505050565b60455460009060ff161580613d5f57506001600160a01b03821660009081526044602052604090205460ff168015613d5f57503360009081526044602052604090205460ff165b613d7b5760405162461bcd60e51b8152600401610c0590615b6d565b5060478054600190810182556001600160a01b038316600081815260496020908152604080832080549095019094559354808252604890945282812080546001600160a01b031916831790559151839290600080516020615cad833981519152908290a4613dfb600083836040518060200160405280600081525061459f565b611eda5760405162461bcd60e51b8152600401610c0590615bbe565b613e22848484613394565b613e2e8484848461459f565b613e4a5760405162461bcd60e51b8152600401610c0590615bbe565b50505050565b6000806000803387613e628282613316565b613e7e5760405162461bcd60e51b8152600401610c0590615544565b6000898152604360209081526040808320815180830190925280548252600101549181019190915290808080613eb5858e8e61424c565b945094505093509350633b9aca008411613ee15760405162461bcd60e51b8152600401610c0590615bda565b613eea8e61469a565b9351919d919c509a50919850909650505050505050565b60008281526043602052604081208054839290613f1f908490615740565b9091555050604051600080516020615c8d833981519152906113b79084908490600190615ba5565b6000803386613f568282613316565b613f725760405162461bcd60e51b8152600401610c0590615544565b60008881526043602052604081208054899290613f90908490615729565b90915550506000888152604360209081526040808320815180830190925280548252600101549181019190915281908190613fcc908a8a61424c565b9450945050509250633b9aca008311613ff75760405162461bcd60e51b8152600401610c0590615bda565b600080516020615c8d8339815191528b8b600060405161401993929190615ba5565b60405180910390a1909a909950975050505050505050565b600080600033876140428282613316565b61405e5760405162461bcd60e51b8152600401610c0590615544565b61406a89898989614719565b603c54929a509095509350600090633b9aca0090614099908b90600160801b90046001600160401b031661558f565b6140a391906155c4565b905080604160008282546140b79190615740565b909155506140c79050818a615729565b95505050509450945094915050565b60008033886140e58282613316565b6141015760405162461bcd60e51b8152600401610c0590615544565b61410d8a888888614719565b919850965094506001600160a01b03891630141561413757614130888887613ac4565b50506141b2565b603c5460405163d645c39360e01b8152600481018a905260248101899052600160801b9091046001600160401b031660448201526001600160a01b038a169063d645c39390606401600060405180830381600087803b15801561419957600080fd5b505af11580156141ad573d6000803e3d6000fd5b505050505b5093989297509195505050505050565b6040516001600160a01b0380851660248301528316604482015260648101829052613e4a9085906323b872dd60e01b906084015b60408051601f198184030181529190526020810180516001600160e01b03166001600160e01b031990931692909217909152614917565b610cad8363a9059cbb60e01b84846040516024016141f6929190615aea565b600080808080866142d157603660009054906101000a90046001600160a01b03166001600160a01b03166357de26a46040518163ffffffff1660e01b8152600401602060405180830381865afa1580156142aa573d6000803e3d6000fd5b505050506040513d601f19601f820116820180604052508101906142ce9190615560565b96505b856142e1576142de6134d9565b95505b6000676765c793fa10079d601b1b878a602001516142ff919061558f565b61430991906155c4565b90506000603854898b60000151614320919061558f565b61432a91906155c4565b905060008261433c5750600019614361565b603c548390614354906001600160401b03168461558f565b61435e91906155c4565b90505b9a919950979695509350505050565b6037546000906001600160a01b03166143a957603b6000815481106143975761439761567f565b90600052602060002001549050919050565b603754604051635dfba04560e11b81526000916001600160a01b03169063bbf7408a906143da908690600401614c1e565b602060405180830381865afa1580156143f7573d6000803e3d6000fd5b505050506040513d601f19601f8201168201806040525081019061441b9190615560565b9050603a6001815481106144315761443161567f565b9060005260206000200154811061446957603b6001815481106144565761445661567f565b9060005260206000200154915050919050565b603a60008154811061447d5761447d61567f565b906000526020600020015481116144a257603b6000815481106144565761445661567f565b603a6000815481106144b6576144b661567f565b9060005260206000200154603a6001815481106144d5576144d561567f565b90600052602060002001546144ea9190615729565b603a6000815481106144fe576144fe61567f565b9060005260206000200154826145149190615729565b603b6000815481106145285761452861567f565b9060005260206000200154603b6001815481106145475761454761567f565b906000526020600020015461455c9190615729565b614566919061558f565b61457091906155c4565b603b6000815481106145845761458461567f565b9060005260206000200154610d979190615740565b50919050565b60006001600160a01b0384163b1561469257604051630a85bd0160e11b81526001600160a01b0385169063150b7a02906145e3903390899088908890600401615bf6565b6020604051808303816000875af192505050801561461e575060408051601f3d908101601f1916820190925261461b91810190615c33565b60015b614678573d80801561464c576040519150601f19603f3d011682016040523d82523d6000602084013e614651565b606091505b5080516146705760405162461bcd60e51b8152600401610c0590615b89565b805181602001fd5b6001600160e01b031916630a85bd0160e11b149050611d2b565b506001611d2b565b60006146a582613273565b90506146b26000836132a8565b6001600160a01b038116600081815260496020908152604080832080546000190190558583526048825280832080546001600160a01b0319169055604390915280822082815560010182905551849290600080516020615cad833981519152908390a45050565b600080808361472d5761472a6134d9565b93505b600084614745676765c793fa10079d601b1b8961558f565b61474f91906155c4565b6000898152604360205260409020600101549091506147c45761479d676765c793fa10079d601b1b7f000000000000000000000000000000000000000000000000000000000000000061558f565b6147a7868361558f565b116147c45760405162461bcd60e51b8152600401610c0590615b89565b600088815260436020526040812060010180548392906147e5908490615740565b9250508190555080604060008282546147fe9190615740565b909155505060395461481c90676765c793fa10079d601b1b9061558f565b8560405461482a919061558f565b111561485d5760405162461bcd60e51b8152602060048201526002602482015261343560f01b6044820152606401610c05565b60008881526043602090815260408083208151808301909252805482526001015491810191909152819061489290898961424c565b50935050509150633b9aca0082116148bc5760405162461bcd60e51b8152600401610c0590615bda565b600080516020615c6d8339815191528a8460016040516148de93929190615ba5565b60405180910390a1676765c793fa10079d601b1b6148fc888561558f565b61490691906155c4565b9a9099509597509495505050505050565b600061496c826040518060400160405280602081526020017f5361666545524332303a206c6f772d6c6576656c2063616c6c206661696c6564815250856001600160a01b03166149e99092919063ffffffff16565b805190915015610cad578080602001905181019061498a91906155d8565b610cad5760405162461bcd60e51b815260206004820152602a60248201527f5361666545524332303a204552433230206f7065726174696f6e20646964206e6044820152691bdd081cdd58d8d9595960b21b6064820152608401610c05565b6060611d2b848460008585843b614a425760405162461bcd60e51b815260206004820152601d60248201527f416464726573733a2063616c6c20746f206e6f6e2d636f6e74726163740000006044820152606401610c05565b600080866001600160a01b03168587604051614a5e9190615c50565b60006040518083038185875af1925050503d8060008114614a9b576040519150601f19603f3d011682016040523d82523d6000602084013e614aa0565b606091505b5091509150614ab0828286614abb565b979650505050505050565b60608315614aca575081610d97565b825115614ada5782518084602001fd5b8160405162461bcd60e51b8152600401610c059190614cc0565b6040518060a0016040528060008152602001600081526020016000815260200160008152602001600081525090565b828054614b2f906154f3565b90600052602060002090601f016020900481019282614b515760008555614b97565b82601f10614b6a57805160ff1916838001178555614b97565b82800160010185558215614b97579182015b82811115614b97578251825591602001919060010190614b7c565b50614ba3929150614c09565b5090565b828054828255906000526020600020908101928215614b975791602002820182811115614b97578251825591602001919060010190614b7c565b6040518060800160405280600081526020016000815260200160008152602001600081525090565b5b80821115614ba35760008155600101614c0a565b6001600160a01b0391909116815260200190565b6001600160e01b031981168114614c4857600080fd5b50565b600060208284031215614c5d57600080fd5b8135610d9781614c32565b60005b83811015614c83578181015183820152602001614c6b565b83811115613e4a5750506000910152565b60008151808452614cac816020860160208601614c68565b601f01601f19169290920160200192915050565b602081526000610d976020830184614c94565b600060208284031215614ce557600080fd5b5035919050565b6001600160a01b0381168114614c4857600080fd5b60008060408385031215614d1457600080fd5b8235614d1f81614cec565b946020939093013593505050565b600080600060608486031215614d4257600080fd5b8335614d4d81614cec565b92506020840135614d5d81614cec565b929592945050506040919091013590565b60008060408385031215614d8157600080fd5b823591506020830135614d9381614cec565b809150509250929050565b60a08101610b4a828480518252602081015160208301526040810151604083015260608101516060830152608081015160808301525050565b600060208284031215614de957600080fd5b8135610d9781614cec565b634e487b7160e01b600052604160045260246000fd5b604051601f8201601f191681016001600160401b0381118282101715614e3257614e32614df4565b604052919050565b600082601f830112614e4b57600080fd5b81356001600160401b03811115614e6457614e64614df4565b614e77601f8201601f1916602001614e0a565b818152846020838601011115614e8c57600080fd5b816020850160208301376000918101602001919091529392505050565b600060208284031215614ebb57600080fd5b81356001600160401b03811115614ed157600080fd5b611d2b84828501614e3a565b80356001600160401b0381168114611eda57600080fd5b60008060408385031215614f0757600080fd5b614d1f83614edd565b60006001600160401b03821115614f2957614f29614df4565b5060051b60200190565b600082601f830112614f4457600080fd5b81356020614f59614f5483614f10565b614e0a565b82815260059290921b84018101918181019086841115614f7857600080fd5b8286015b84811015614f935780358352918301918301614f7c565b509695505050505050565b600080600060608486031215614fb357600080fd5b8335614fbe81614cec565b925060208401356001600160401b0380821115614fda57600080fd5b614fe687838801614f33565b93506040860135915080821115614ffc57600080fd5b5061500986828701614f33565b9150509250925092565b60008060008060008060c0878903121561502c57600080fd5b86356001600160401b038082111561504357600080fd5b61504f8a838b01614f33565b9750602089013591508082111561506557600080fd5b6150718a838b01614f33565b96506040890135915061508382614cec565b90945060608801359061509582614cec565b9093506080880135906150a782614cec565b90925060a088013590808211156150bd57600080fd5b506150ca89828a01614e3a565b9150509295509295509295565b600081518084526020808501945080840160005b83811015615107578151875295820195908201906001016150eb565b509495945050505050565b60408152600061512560408301856150d7565b90508260208301529392505050565b600082601f83011261514557600080fd5b81356020615155614f5483614f10565b82815260059290921b8401810191818101908684111561517457600080fd5b8286015b84811015614f93578035600881106151905760008081fd5b8352918301918301615178565b600082601f8301126151ae57600080fd5b813560206151be614f5483614f10565b82815260059290921b840181019181810190868411156151dd57600080fd5b8286015b84811015614f935780356001600160401b038111156152005760008081fd5b61520e8986838b0101614e3a565b8452509183019183016151e1565b6000806000806080858703121561523257600080fd5b84356001600160401b038082111561524957600080fd5b61525588838901615134565b9550602087013591508082111561526b57600080fd5b506152788782880161519d565b935050604085013561528981614cec565b9150606085013561529981614cec565b939692955090935050565b8015158114614c4857600080fd5b600080604083850312156152c557600080fd5b82356152d081614cec565b91506020830135614d93816152a4565b600080600080608085870312156152f657600080fd5b843561530181614cec565b9350602085013561531181614cec565b92506040850135915060608501356001600160401b0381111561533357600080fd5b61533f87828801614e3a565b91505092959194509250565b60008060006060848603121561536057600080fd5b505081359360208301359350604090920135919050565b60008060008060008587036101a081121561539157600080fd5b863561539c81614cec565b955060208701356153ac81614cec565b945060408701356153bc81614cec565b9350610120605f19820112156153d157600080fd5b506060860191506101808601356001600160401b038111156153f257600080fd5b6153fe88828901614e3a565b9150509295509295909350565b60008060008060008060c0878903121561542457600080fd5b86356001600160401b038082111561543b57600080fd5b6154478a838b01615134565b9750602089013591508082111561545d57600080fd5b6150718a838b0161519d565b6000806040838503121561547c57600080fd5b823561548781614cec565b91506020830135614d9381614cec565b600080600080608085870312156154ad57600080fd5b84356001600160401b03808211156154c457600080fd5b6154d088838901614f33565b955060208701359150808211156154e657600080fd5b5061527887828801614f33565b600181811c9082168061550757607f821691505b6020821081141561459957634e487b7160e01b600052602260045260246000fd5b602080825260029082015261191b60f11b604082015260600190565b602080825260029082015261189b60f11b604082015260600190565b60006020828403121561557257600080fd5b5051919050565b634e487b7160e01b600052601160045260246000fd5b60008160001904831182151516156155a9576155a9615579565b500290565b634e487b7160e01b600052601260045260246000fd5b6000826155d3576155d36155ae565b500490565b6000602082840312156155ea57600080fd5b8151610d97816152a4565b6020808252600190820152603160f81b604082015260600190565b6020808252600190820152601960f91b604082015260600190565b6020808252600190820152603960f81b604082015260600190565b60006020828403121561565857600080fd5b8151610d9781614cec565b602080825260029082015261333360f01b604082015260600190565b634e487b7160e01b600052603260045260246000fd5b602080825260029082015261313560f01b604082015260600190565b6040815260006156c460408301856150d7565b828103602084015261211481856150d7565b6020808252600290820152611a1960f11b604082015260600190565b6020808252601f908201527f5265656e7472616e637947756172643a207265656e7472616e742063616c6c00604082015260600190565b60008282101561573b5761573b615579565b500390565b6000821982111561575357615753615579565b500190565b600060001982141561576c5761576c615579565b5060010190565b600082615782576157826155ae565b500690565b60008151615799818560208601614c68565b9290920192915050565b600080845481600182811c9150808316806157bf57607f831692505b60208084108214156157df57634e487b7160e01b86526022600452602486fd5b8180156157f3576001811461580457615831565b60ff19861689528489019650615831565b60008b81526020902060005b868110156158295781548b820152908501908301615810565b505084890196505b5050505050506121148185615787565b60006020828403121561585357600080fd5b815160ff81168114610d9757600080fd5b600181815b8085111561589f57816000190482111561588557615885615579565b8085161561589257918102915b93841c9390800290615869565b509250929050565b6000826158b657506001610b4a565b816158c357506000610b4a565b81600181146158d957600281146158e3576158ff565b6001915050610b4a565b60ff8411156158f4576158f4615579565b50506001821b610b4a565b5060208310610133831016604e8410600b8410161715615922575081810a610b4a565b61592c8383615864565b806000190482111561594057615940615579565b029392505050565b6000610d9760ff8416836158a7565b6e020b733b63290283937ba37b1b7b61608d1b81526000825161598181600f850160208701614c68565b650815985d5b1d60d21b600f939091019283015250601501919050565b600082516159b0818460208701614c68565b650b5d985d5b1d60d21b920191825250600601919050565b6000602082840312156159da57600080fd5b610d9782614edd565b6000602082840312156159f557600080fd5b8135610d97816152a4565b634e487b7160e01b600052602160045260246000fd5b60008060408385031215615a2957600080fd5b505080516020909101519092909150565b60008060008060808587031215615a5057600080fd5b845193506020850151615a6281614cec565b6040860151606090960151949790965092505050565b60008060008060008060c08789031215615a9157600080fd5b8651615a9c81614cec565b6020880151604089015160608a015160808b015160a0909b0151939c929b509099909850965090945092505050565b9283526001600160a01b03918216602084015216604082015260600190565b6001600160a01b03929092168252602082015260400190565b6001600160a01b038781168252868116602083015285166040820152606081018490526080810183905260c060a08201819052600090615b4590830184614c94565b98975050505050505050565b6020808252600290820152610c4d60f21b604082015260600190565b602080825260029082015261032360f41b604082015260600190565b6020808252600290820152610c8d60f21b604082015260600190565b928352602083019190915260ff16604082015260600190565b602080825260029082015261323960f01b604082015260600190565b602080825260029082015261323160f01b604082015260600190565b6001600160a01b0385811682528416602082015260408101839052608060608201819052600090615c2990830184614c94565b9695505050505050565b600060208284031215615c4557600080fd5b8151610d9781614c32565b60008251615c62818460208701614c68565b919091019291505056fe70cf49afe7355562d5b022e594790f22b71ad8cc7eec902fa5feac7c67f71091722cb71fa87c947148cefc06dd890af5802a6a00207c5ddecf1191bf71ce3cd4ddf252ad1be2c89b69c2b068fc378daa952ba7f163c4a11628f55a4df523b3efa2646970667358221220d1dbd2df9ae23404f9806b2607374fd9b41ee1944edaa898132427e69142969364736f6c634300080c0033",
  "linkReferences": {},
  "deployedLinkReferences": {}
}